{
  "_format": "hh-sol-artifact-1",
  "contractName": "RecepitNFT",
  "sourceName": "contracts/RecepitNFT.sol",
  "abi": [
    {
      "inputs": [
        {
          "components": [
            {
              "internalType": "address[]",
              "name": "subscribers",
              "type": "address[]"
            },
            {
              "internalType": "string",
              "name": "flightn",
              "type": "string"
            },
            {
              "internalType": "uint256",
              "name": "premium",
              "type": "uint256"
            },
            {
              "internalType": "uint256",
              "name": "refund",
              "type": "uint256"
            },
            {
              "internalType": "uint256",
              "name": "expiryTimestamp",
              "type": "uint256"
            }
          ],
          "internalType": "struct Policy",
          "name": "_policy",
          "type": "tuple"
        },
        {
          "internalType": "contract ERC20",
          "name": "_asset",
          "type": "address"
        },
        {
          "internalType": "address",
          "name": "_subscriber",
          "type": "address"
        },
        {
          "internalType": "address",
          "name": "_brokerAddress",
          "type": "address"
        },
        {
          "internalType": "uint256",
          "name": "_id",
          "type": "uint256"
        }
      ],
      "stateMutability": "nonpayable",
      "type": "constructor"
    },
    {
      "anonymous": false,
      "inputs": [
        {
          "indexed": true,
          "internalType": "address",
          "name": "owner",
          "type": "address"
        },
        {
          "indexed": true,
          "internalType": "address",
          "name": "approved",
          "type": "address"
        },
        {
          "indexed": true,
          "internalType": "uint256",
          "name": "tokenId",
          "type": "uint256"
        }
      ],
      "name": "Approval",
      "type": "event"
    },
    {
      "anonymous": false,
      "inputs": [
        {
          "indexed": true,
          "internalType": "address",
          "name": "owner",
          "type": "address"
        },
        {
          "indexed": true,
          "internalType": "address",
          "name": "operator",
          "type": "address"
        },
        {
          "indexed": false,
          "internalType": "bool",
          "name": "approved",
          "type": "bool"
        }
      ],
      "name": "ApprovalForAll",
      "type": "event"
    },
    {
      "anonymous": false,
      "inputs": [
        {
          "indexed": true,
          "internalType": "address",
          "name": "previousOwner",
          "type": "address"
        },
        {
          "indexed": true,
          "internalType": "address",
          "name": "newOwner",
          "type": "address"
        }
      ],
      "name": "OwnershipTransferred",
      "type": "event"
    },
    {
      "anonymous": false,
      "inputs": [
        {
          "indexed": false,
          "internalType": "string",
          "name": "flightn",
          "type": "string"
        },
        {
          "indexed": false,
          "internalType": "uint256",
          "name": "amount",
          "type": "uint256"
        }
      ],
      "name": "Refunded",
      "type": "event"
    },
    {
      "anonymous": false,
      "inputs": [
        {
          "indexed": true,
          "internalType": "address",
          "name": "from",
          "type": "address"
        },
        {
          "indexed": true,
          "internalType": "address",
          "name": "to",
          "type": "address"
        },
        {
          "indexed": true,
          "internalType": "uint256",
          "name": "tokenId",
          "type": "uint256"
        }
      ],
      "name": "Transfer",
      "type": "event"
    },
    {
      "inputs": [
        {
          "internalType": "address",
          "name": "to",
          "type": "address"
        },
        {
          "internalType": "uint256",
          "name": "tokenId",
          "type": "uint256"
        }
      ],
      "name": "approve",
      "outputs": [],
      "stateMutability": "nonpayable",
      "type": "function"
    },
    {
      "inputs": [
        {
          "internalType": "address",
          "name": "owner",
          "type": "address"
        }
      ],
      "name": "balanceOf",
      "outputs": [
        {
          "internalType": "uint256",
          "name": "",
          "type": "uint256"
        }
      ],
      "stateMutability": "view",
      "type": "function"
    },
    {
      "inputs": [],
      "name": "brokerAddress",
      "outputs": [
        {
          "internalType": "address",
          "name": "",
          "type": "address"
        }
      ],
      "stateMutability": "view",
      "type": "function"
    },
    {
      "inputs": [],
      "name": "claimRefund",
      "outputs": [],
      "stateMutability": "nonpayable",
      "type": "function"
    },
    {
      "inputs": [
        {
          "internalType": "uint256",
          "name": "tokenId",
          "type": "uint256"
        }
      ],
      "name": "getApproved",
      "outputs": [
        {
          "internalType": "address",
          "name": "",
          "type": "address"
        }
      ],
      "stateMutability": "view",
      "type": "function"
    },
    {
      "inputs": [],
      "name": "getPolicy",
      "outputs": [
        {
          "components": [
            {
              "internalType": "address[]",
              "name": "subscribers",
              "type": "address[]"
            },
            {
              "internalType": "string",
              "name": "flightn",
              "type": "string"
            },
            {
              "internalType": "uint256",
              "name": "premium",
              "type": "uint256"
            },
            {
              "internalType": "uint256",
              "name": "refund",
              "type": "uint256"
            },
            {
              "internalType": "uint256",
              "name": "expiryTimestamp",
              "type": "uint256"
            }
          ],
          "internalType": "struct Policy",
          "name": "",
          "type": "tuple"
        }
      ],
      "stateMutability": "nonpayable",
      "type": "function"
    },
    {
      "inputs": [],
      "name": "getSubscriber",
      "outputs": [
        {
          "internalType": "address",
          "name": "",
          "type": "address"
        }
      ],
      "stateMutability": "nonpayable",
      "type": "function"
    },
    {
      "inputs": [
        {
          "internalType": "address",
          "name": "owner",
          "type": "address"
        },
        {
          "internalType": "address",
          "name": "operator",
          "type": "address"
        }
      ],
      "name": "isApprovedForAll",
      "outputs": [
        {
          "internalType": "bool",
          "name": "",
          "type": "bool"
        }
      ],
      "stateMutability": "view",
      "type": "function"
    },
    {
      "inputs": [],
      "name": "name",
      "outputs": [
        {
          "internalType": "string",
          "name": "",
          "type": "string"
        }
      ],
      "stateMutability": "view",
      "type": "function"
    },
    {
      "inputs": [],
      "name": "owner",
      "outputs": [
        {
          "internalType": "address",
          "name": "",
          "type": "address"
        }
      ],
      "stateMutability": "view",
      "type": "function"
    },
    {
      "inputs": [
        {
          "internalType": "uint256",
          "name": "tokenId",
          "type": "uint256"
        }
      ],
      "name": "ownerOf",
      "outputs": [
        {
          "internalType": "address",
          "name": "",
          "type": "address"
        }
      ],
      "stateMutability": "view",
      "type": "function"
    },
    {
      "inputs": [],
      "name": "policy",
      "outputs": [
        {
          "internalType": "string",
          "name": "flightn",
          "type": "string"
        },
        {
          "internalType": "uint256",
          "name": "premium",
          "type": "uint256"
        },
        {
          "internalType": "uint256",
          "name": "refund",
          "type": "uint256"
        },
        {
          "internalType": "uint256",
          "name": "expiryTimestamp",
          "type": "uint256"
        }
      ],
      "stateMutability": "view",
      "type": "function"
    },
    {
      "inputs": [],
      "name": "renounceOwnership",
      "outputs": [],
      "stateMutability": "nonpayable",
      "type": "function"
    },
    {
      "inputs": [
        {
          "internalType": "address",
          "name": "from",
          "type": "address"
        },
        {
          "internalType": "address",
          "name": "to",
          "type": "address"
        },
        {
          "internalType": "uint256",
          "name": "tokenId",
          "type": "uint256"
        }
      ],
      "name": "safeTransferFrom",
      "outputs": [],
      "stateMutability": "nonpayable",
      "type": "function"
    },
    {
      "inputs": [
        {
          "internalType": "address",
          "name": "from",
          "type": "address"
        },
        {
          "internalType": "address",
          "name": "to",
          "type": "address"
        },
        {
          "internalType": "uint256",
          "name": "tokenId",
          "type": "uint256"
        },
        {
          "internalType": "bytes",
          "name": "data",
          "type": "bytes"
        }
      ],
      "name": "safeTransferFrom",
      "outputs": [],
      "stateMutability": "nonpayable",
      "type": "function"
    },
    {
      "inputs": [
        {
          "internalType": "address",
          "name": "operator",
          "type": "address"
        },
        {
          "internalType": "bool",
          "name": "approved",
          "type": "bool"
        }
      ],
      "name": "setApprovalForAll",
      "outputs": [],
      "stateMutability": "nonpayable",
      "type": "function"
    },
    {
      "inputs": [],
      "name": "subscriber",
      "outputs": [
        {
          "internalType": "address",
          "name": "",
          "type": "address"
        }
      ],
      "stateMutability": "view",
      "type": "function"
    },
    {
      "inputs": [
        {
          "internalType": "bytes4",
          "name": "interfaceId",
          "type": "bytes4"
        }
      ],
      "name": "supportsInterface",
      "outputs": [
        {
          "internalType": "bool",
          "name": "",
          "type": "bool"
        }
      ],
      "stateMutability": "view",
      "type": "function"
    },
    {
      "inputs": [],
      "name": "symbol",
      "outputs": [
        {
          "internalType": "string",
          "name": "",
          "type": "string"
        }
      ],
      "stateMutability": "view",
      "type": "function"
    },
    {
      "inputs": [
        {
          "internalType": "uint256",
          "name": "tokenId",
          "type": "uint256"
        }
      ],
      "name": "tokenURI",
      "outputs": [
        {
          "internalType": "string",
          "name": "",
          "type": "string"
        }
      ],
      "stateMutability": "view",
      "type": "function"
    },
    {
      "inputs": [
        {
          "internalType": "address",
          "name": "from",
          "type": "address"
        },
        {
          "internalType": "address",
          "name": "to",
          "type": "address"
        },
        {
          "internalType": "uint256",
          "name": "tokenId",
          "type": "uint256"
        }
      ],
      "name": "transferFrom",
      "outputs": [],
      "stateMutability": "nonpayable",
      "type": "function"
    },
    {
      "inputs": [
        {
          "internalType": "address",
          "name": "newOwner",
          "type": "address"
        }
      ],
      "name": "transferOwnership",
      "outputs": [],
      "stateMutability": "nonpayable",
      "type": "function"
    }
  ],
  "bytecode": "0x60806040523480156200001157600080fd5b506040516200391038038062003910833981810160405281019062000037919062000895565b6040518060400160405280601281526020017f506f6c6963792052656365706974204e465400000000000000000000000000008152506040518060400160405280600381526020017f50524e00000000000000000000000000000000000000000000000000000000008152508160009080519060200190620000bb92919062000536565b508060019080519060200190620000d492919062000536565b505050620000f7620000eb620001f860201b60201c565b6200020060201b60201c565b846007600082015181600001908051906020019062000118929190620005c7565b5060208201518160010190805190602001906200013792919062000536565b5060408201518160020155606082015181600301556080820151816004015590505081600c60006101000a81548173ffffffffffffffffffffffffffffffffffffffff021916908373ffffffffffffffffffffffffffffffffffffffff16021790555082600d60006101000a81548173ffffffffffffffffffffffffffffffffffffffff021916908373ffffffffffffffffffffffffffffffffffffffff160217905550620001ed8382620002c660201b60201c565b505050505062000cf0565b600033905090565b6000600660009054906101000a900473ffffffffffffffffffffffffffffffffffffffff16905081600660006101000a81548173ffffffffffffffffffffffffffffffffffffffff021916908373ffffffffffffffffffffffffffffffffffffffff1602179055508173ffffffffffffffffffffffffffffffffffffffff168173ffffffffffffffffffffffffffffffffffffffff167f8be0079c531659141344cd1fd0a4f28419497f9722a3daafe3b4186f6b6457e060405160405180910390a35050565b600073ffffffffffffffffffffffffffffffffffffffff168273ffffffffffffffffffffffffffffffffffffffff16141562000339576040517f08c379a00000000000000000000000000000000000000000000000000000000081526004016200033090620009a0565b60405180910390fd5b6200034a81620004c060201b60201c565b156200038d576040517f08c379a000000000000000000000000000000000000000000000000000000000815260040162000384906200097e565b60405180910390fd5b620003a1600083836200052c60201b60201c565b6001600360008473ffffffffffffffffffffffffffffffffffffffff1673ffffffffffffffffffffffffffffffffffffffff1681526020019081526020016000206000828254620003f3919062000a61565b92505081905550816002600083815260200190815260200160002060006101000a81548173ffffffffffffffffffffffffffffffffffffffff021916908373ffffffffffffffffffffffffffffffffffffffff160217905550808273ffffffffffffffffffffffffffffffffffffffff16600073ffffffffffffffffffffffffffffffffffffffff167fddf252ad1be2c89b69c2b068fc378daa952ba7f163c4a11628f55a4df523b3ef60405160405180910390a4620004bc600083836200053160201b60201c565b5050565b60008073ffffffffffffffffffffffffffffffffffffffff166002600084815260200190815260200160002060009054906101000a900473ffffffffffffffffffffffffffffffffffffffff1673ffffffffffffffffffffffffffffffffffffffff1614159050919050565b505050565b505050565b828054620005449062000b46565b90600052602060002090601f016020900481019282620005685760008555620005b4565b82601f106200058357805160ff1916838001178555620005b4565b82800160010185558215620005b4579182015b82811115620005b357825182559160200191906001019062000596565b5b509050620005c3919062000656565b5090565b82805482825590600052602060002090810192821562000643579160200282015b82811115620006425782518260006101000a81548173ffffffffffffffffffffffffffffffffffffffff021916908373ffffffffffffffffffffffffffffffffffffffff16021790555091602001919060010190620005e8565b5b50905062000652919062000656565b5090565b5b808211156200067157600081600090555060010162000657565b5090565b60006200068c6200068684620009eb565b620009c2565b90508083825260208201905082856020860282011115620006ac57600080fd5b60005b85811015620006e05781620006c588826200072f565b845260208401935060208301925050600181019050620006af565b5050509392505050565b600062000701620006fb8462000a1a565b620009c2565b9050828152602081018484840111156200071a57600080fd5b6200072784828562000b10565b509392505050565b600081519050620007408162000ca2565b92915050565b600082601f8301126200075857600080fd5b81516200076a84826020860162000675565b91505092915050565b600081519050620007848162000cbc565b92915050565b600082601f8301126200079c57600080fd5b8151620007ae848260208601620006ea565b91505092915050565b600060a08284031215620007ca57600080fd5b620007d660a0620009c2565b9050600082015167ffffffffffffffff811115620007f357600080fd5b620008018482850162000746565b600083015250602082015167ffffffffffffffff8111156200082257600080fd5b62000830848285016200078a565b602083015250604062000846848285016200087e565b60408301525060606200085c848285016200087e565b606083015250608062000872848285016200087e565b60808301525092915050565b6000815190506200088f8162000cd6565b92915050565b600080600080600060a08688031215620008ae57600080fd5b600086015167ffffffffffffffff811115620008c957600080fd5b620008d788828901620007b7565b9550506020620008ea8882890162000773565b9450506040620008fd888289016200072f565b935050606062000910888289016200072f565b925050608062000923888289016200087e565b9150509295509295909350565b60006200093f601c8362000a50565b91506200094c8262000c50565b602082019050919050565b60006200096660208362000a50565b9150620009738262000c79565b602082019050919050565b60006020820190508181036000830152620009998162000930565b9050919050565b60006020820190508181036000830152620009bb8162000957565b9050919050565b6000620009ce620009e1565b9050620009dc828262000b7c565b919050565b6000604051905090565b600067ffffffffffffffff82111562000a095762000a0862000c10565b5b602082029050602081019050919050565b600067ffffffffffffffff82111562000a385762000a3762000c10565b5b62000a438262000c3f565b9050602081019050919050565b600082825260208201905092915050565b600062000a6e8262000b06565b915062000a7b8362000b06565b9250827fffffffffffffffffffffffffffffffffffffffffffffffffffffffffffffffff0382111562000ab35762000ab262000bb2565b5b828201905092915050565b600062000acb8262000ae6565b9050919050565b600062000adf8262000abe565b9050919050565b600073ffffffffffffffffffffffffffffffffffffffff82169050919050565b6000819050919050565b60005b8381101562000b3057808201518184015260208101905062000b13565b8381111562000b40576000848401525b50505050565b6000600282049050600182168062000b5f57607f821691505b6020821081141562000b765762000b7562000be1565b5b50919050565b62000b878262000c3f565b810181811067ffffffffffffffff8211171562000ba95762000ba862000c10565b5b80604052505050565b7f4e487b7100000000000000000000000000000000000000000000000000000000600052601160045260246000fd5b7f4e487b7100000000000000000000000000000000000000000000000000000000600052602260045260246000fd5b7f4e487b7100000000000000000000000000000000000000000000000000000000600052604160045260246000fd5b6000601f19601f8301169050919050565b7f4552433732313a20746f6b656e20616c7265616479206d696e74656400000000600082015250565b7f4552433732313a206d696e7420746f20746865207a65726f2061646472657373600082015250565b62000cad8162000abe565b811462000cb957600080fd5b50565b62000cc78162000ad2565b811462000cd357600080fd5b50565b62000ce18162000b06565b811462000ced57600080fd5b50565b612c108062000d006000396000f3fe608060405234801561001057600080fd5b50600436106101425760003560e01c8063715018a6116100b8578063b5545a3c1161007c578063b5545a3c14610356578063b88d4fde14610360578063c87b56dd1461037c578063ce1e4626146103ac578063e985e9c5146103ca578063f2fde38b146103fa57610142565b8063715018a6146102d65780638da5cb5b146102e057806395d89b41146102fe578063a22cb4651461031c578063aeddc49f1461033857610142565b806320e036301161010a57806320e036301461020257806323b872dd1461022057806342842e0e1461023c5780635089f796146102585780636352211e1461027657806370a08231146102a657610142565b806301ffc9a7146101475780630505c8c91461017757806306fdde0314610198578063081812fc146101b6578063095ea7b3146101e6575b600080fd5b610161600480360381019061015c9190611d01565b610416565b60405161016e9190612222565b60405180910390f35b61017f6104f8565b60405161018f949392919061225f565b60405180910390f35b6101a061059e565b6040516101ad919061223d565b60405180910390f35b6101d060048036038101906101cb9190611d53565b610630565b6040516101dd91906121bb565b60405180910390f35b61020060048036038101906101fb9190611cc5565b610676565b005b61020a61078e565b60405161021791906121bb565b60405180910390f35b61023a60048036038101906102359190611bbf565b6107b4565b005b61025660048036038101906102519190611bbf565b610814565b005b610260610834565b60405161026d91906121bb565b60405180910390f35b610290600480360381019061028b9190611d53565b61085a565b60405161029d91906121bb565b60405180910390f35b6102c060048036038101906102bb9190611b5a565b61090c565b6040516102cd919061245d565b60405180910390f35b6102de6109c4565b005b6102e86109d8565b6040516102f591906121bb565b60405180910390f35b610306610a02565b604051610313919061223d565b60405180910390f35b61033660048036038101906103319190611c89565b610a94565b005b610340610aaa565b60405161034d91906121bb565b60405180910390f35b61035e610ad4565b005b61037a60048036038101906103759190611c0e565b610bad565b005b61039660048036038101906103919190611d53565b610c0f565b6040516103a3919061223d565b60405180910390f35b6103b4610c77565b6040516103c1919061243b565b60405180910390f35b6103e460048036038101906103df9190611b83565b610dcf565b6040516103f19190612222565b60405180910390f35b610414600480360381019061040f9190611b5a565b610e63565b005b60007f80ac58cd000000000000000000000000000000000000000000000000000000007bffffffffffffffffffffffffffffffffffffffffffffffffffffffff1916827bffffffffffffffffffffffffffffffffffffffffffffffffffffffff191614806104e157507f5b5e139f000000000000000000000000000000000000000000000000000000007bffffffffffffffffffffffffffffffffffffffffffffffffffffffff1916827bffffffffffffffffffffffffffffffffffffffffffffffffffffffff1916145b806104f157506104f082610ee7565b5b9050919050565b6007806001018054610509906126e1565b80601f0160208091040260200160405190810160405280929190818152602001828054610535906126e1565b80156105825780601f1061055757610100808354040283529160200191610582565b820191906000526020600020905b81548152906001019060200180831161056557829003601f168201915b5050505050908060020154908060030154908060040154905084565b6060600080546105ad906126e1565b80601f01602080910402602001604051908101604052809291908181526020018280546105d9906126e1565b80156106265780601f106105fb57610100808354040283529160200191610626565b820191906000526020600020905b81548152906001019060200180831161060957829003601f168201915b5050505050905090565b600061063b82610f51565b6004600083815260200190815260200160002060009054906101000a900473ffffffffffffffffffffffffffffffffffffffff169050919050565b60006106818261085a565b90508073ffffffffffffffffffffffffffffffffffffffff168373ffffffffffffffffffffffffffffffffffffffff1614156106f2576040517f08c379a00000000000000000000000000000000000000000000000000000000081526004016106e9906123fb565b60405180910390fd5b8073ffffffffffffffffffffffffffffffffffffffff16610711610f9c565b73ffffffffffffffffffffffffffffffffffffffff161480610740575061073f8161073a610f9c565b610dcf565b5b61077f576040517f08c379a00000000000000000000000000000000000000000000000000000000081526004016107769061239b565b60405180910390fd5b6107898383610fa4565b505050565b600d60009054906101000a900473ffffffffffffffffffffffffffffffffffffffff1681565b6107c56107bf610f9c565b8261105d565b610804576040517f08c379a00000000000000000000000000000000000000000000000000000000081526004016107fb9061241b565b60405180910390fd5b61080f8383836110f2565b505050565b61082f83838360405180602001604052806000815250610bad565b505050565b600c60009054906101000a900473ffffffffffffffffffffffffffffffffffffffff1681565b6000806002600084815260200190815260200160002060009054906101000a900473ffffffffffffffffffffffffffffffffffffffff169050600073ffffffffffffffffffffffffffffffffffffffff168173ffffffffffffffffffffffffffffffffffffffff161415610903576040517f08c379a00000000000000000000000000000000000000000000000000000000081526004016108fa906123db565b60405180910390fd5b80915050919050565b60008073ffffffffffffffffffffffffffffffffffffffff168273ffffffffffffffffffffffffffffffffffffffff16141561097d576040517f08c379a00000000000000000000000000000000000000000000000000000000081526004016109749061237b565b60405180910390fd5b600360008373ffffffffffffffffffffffffffffffffffffffff1673ffffffffffffffffffffffffffffffffffffffff168152602001908152602001600020549050919050565b6109cc611359565b6109d660006113d7565b565b6000600660009054906101000a900473ffffffffffffffffffffffffffffffffffffffff16905090565b606060018054610a11906126e1565b80601f0160208091040260200160405190810160405280929190818152602001828054610a3d906126e1565b8015610a8a5780601f10610a5f57610100808354040283529160200191610a8a565b820191906000526020600020905b815481529060010190602001808311610a6d57829003601f168201915b5050505050905090565b610aa6610a9f610f9c565b838361149d565b5050565b6000600d60009054906101000a900473ffffffffffffffffffffffffffffffffffffffff16905090565b610adc611359565b600c60009054906101000a900473ffffffffffffffffffffffffffffffffffffffff1673ffffffffffffffffffffffffffffffffffffffff1663948b56a3306040518263ffffffff1660e01b8152600401610b3791906121bb565b600060405180830381600087803b158015610b5157600080fd5b505af1158015610b65573d6000803e3d6000fd5b505050507fcaa0d503a8b72f80580e825ef1a8d902692817f3a7c41bd1d53df0682ff3a7d66007600101600760030154604051610ba39291906122ab565b60405180910390a1565b610bbe610bb8610f9c565b8361105d565b610bfd576040517f08c379a0000000000000000000000000000000000000000000000000000000008152600401610bf49061241b565b60405180910390fd5b610c098484848461160a565b50505050565b6060610c1a82610f51565b6000610c24611666565b90506000815111610c445760405180602001604052806000815250610c6f565b80610c4e8461167d565b604051602001610c5f929190612197565b6040516020818303038152906040525b915050919050565b610c7f611a5a565b60076040518060a001604052908160008201805480602002602001604051908101604052809291908181526020018280548015610d1157602002820191906000526020600020905b8160009054906101000a900473ffffffffffffffffffffffffffffffffffffffff1673ffffffffffffffffffffffffffffffffffffffff1681526020019060010190808311610cc7575b50505050508152602001600182018054610d2a906126e1565b80601f0160208091040260200160405190810160405280929190818152602001828054610d56906126e1565b8015610da35780601f10610d7857610100808354040283529160200191610da3565b820191906000526020600020905b815481529060010190602001808311610d8657829003601f168201915b505050505081526020016002820154815260200160038201548152602001600482015481525050905090565b6000600560008473ffffffffffffffffffffffffffffffffffffffff1673ffffffffffffffffffffffffffffffffffffffff16815260200190815260200160002060008373ffffffffffffffffffffffffffffffffffffffff1673ffffffffffffffffffffffffffffffffffffffff16815260200190815260200160002060009054906101000a900460ff16905092915050565b610e6b611359565b600073ffffffffffffffffffffffffffffffffffffffff168173ffffffffffffffffffffffffffffffffffffffff161415610edb576040517f08c379a0000000000000000000000000000000000000000000000000000000008152600401610ed2906122fb565b60405180910390fd5b610ee4816113d7565b50565b60007f01ffc9a7000000000000000000000000000000000000000000000000000000007bffffffffffffffffffffffffffffffffffffffffffffffffffffffff1916827bffffffffffffffffffffffffffffffffffffffffffffffffffffffff1916149050919050565b610f5a8161182a565b610f99576040517f08c379a0000000000000000000000000000000000000000000000000000000008152600401610f90906123db565b60405180910390fd5b50565b600033905090565b816004600083815260200190815260200160002060006101000a81548173ffffffffffffffffffffffffffffffffffffffff021916908373ffffffffffffffffffffffffffffffffffffffff160217905550808273ffffffffffffffffffffffffffffffffffffffff166110178361085a565b73ffffffffffffffffffffffffffffffffffffffff167f8c5be1e5ebec7d5bd14f71427d1e84f3dd0314c0f7b2291e5b200ac8c7c3b92560405160405180910390a45050565b6000806110698361085a565b90508073ffffffffffffffffffffffffffffffffffffffff168473ffffffffffffffffffffffffffffffffffffffff1614806110ab57506110aa8185610dcf565b5b806110e957508373ffffffffffffffffffffffffffffffffffffffff166110d184610630565b73ffffffffffffffffffffffffffffffffffffffff16145b91505092915050565b8273ffffffffffffffffffffffffffffffffffffffff166111128261085a565b73ffffffffffffffffffffffffffffffffffffffff1614611168576040517f08c379a000000000000000000000000000000000000000000000000000000000815260040161115f9061231b565b60405180910390fd5b600073ffffffffffffffffffffffffffffffffffffffff168273ffffffffffffffffffffffffffffffffffffffff1614156111d8576040517f08c379a00000000000000000000000000000000000000000000000000000000081526004016111cf9061233b565b60405180910390fd5b6111e3838383611896565b6111ee600082610fa4565b6001600360008573ffffffffffffffffffffffffffffffffffffffff1673ffffffffffffffffffffffffffffffffffffffff168152602001908152602001600020600082825461123e91906125f7565b925050819055506001600360008473ffffffffffffffffffffffffffffffffffffffff1673ffffffffffffffffffffffffffffffffffffffff16815260200190815260200160002060008282546112959190612570565b92505081905550816002600083815260200190815260200160002060006101000a81548173ffffffffffffffffffffffffffffffffffffffff021916908373ffffffffffffffffffffffffffffffffffffffff160217905550808273ffffffffffffffffffffffffffffffffffffffff168473ffffffffffffffffffffffffffffffffffffffff167fddf252ad1be2c89b69c2b068fc378daa952ba7f163c4a11628f55a4df523b3ef60405160405180910390a461135483838361189b565b505050565b611361610f9c565b73ffffffffffffffffffffffffffffffffffffffff1661137f6109d8565b73ffffffffffffffffffffffffffffffffffffffff16146113d5576040517f08c379a00000000000000000000000000000000000000000000000000000000081526004016113cc906123bb565b60405180910390fd5b565b6000600660009054906101000a900473ffffffffffffffffffffffffffffffffffffffff16905081600660006101000a81548173ffffffffffffffffffffffffffffffffffffffff021916908373ffffffffffffffffffffffffffffffffffffffff1602179055508173ffffffffffffffffffffffffffffffffffffffff168173ffffffffffffffffffffffffffffffffffffffff167f8be0079c531659141344cd1fd0a4f28419497f9722a3daafe3b4186f6b6457e060405160405180910390a35050565b8173ffffffffffffffffffffffffffffffffffffffff168373ffffffffffffffffffffffffffffffffffffffff16141561150c576040517f08c379a00000000000000000000000000000000000000000000000000000000081526004016115039061235b565b60405180910390fd5b80600560008573ffffffffffffffffffffffffffffffffffffffff1673ffffffffffffffffffffffffffffffffffffffff16815260200190815260200160002060008473ffffffffffffffffffffffffffffffffffffffff1673ffffffffffffffffffffffffffffffffffffffff16815260200190815260200160002060006101000a81548160ff0219169083151502179055508173ffffffffffffffffffffffffffffffffffffffff168373ffffffffffffffffffffffffffffffffffffffff167f17307eab39ab6107e8899845ad3d59bd9653f200f220920489ca2b5937696c31836040516115fd9190612222565b60405180910390a3505050565b6116158484846110f2565b611621848484846118a0565b611660576040517f08c379a0000000000000000000000000000000000000000000000000000000008152600401611657906122db565b60405180910390fd5b50505050565b606060405180602001604052806000815250905090565b606060008214156116c5576040518060400160405280600181526020017f30000000000000000000000000000000000000000000000000000000000000008152509050611825565b600082905060005b600082146116f75780806116e090612744565b915050600a826116f091906125c6565b91506116cd565b60008167ffffffffffffffff811115611739577f4e487b7100000000000000000000000000000000000000000000000000000000600052604160045260246000fd5b6040519080825280601f01601f19166020018201604052801561176b5781602001600182028036833780820191505090505b5090505b6000851461181e5760018261178491906125f7565b9150600a85611793919061278d565b603061179f9190612570565b60f81b8183815181106117db577f4e487b7100000000000000000000000000000000000000000000000000000000600052603260045260246000fd5b60200101907effffffffffffffffffffffffffffffffffffffffffffffffffffffffffffff1916908160001a905350600a8561181791906125c6565b945061176f565b8093505050505b919050565b60008073ffffffffffffffffffffffffffffffffffffffff166002600084815260200190815260200160002060009054906101000a900473ffffffffffffffffffffffffffffffffffffffff1673ffffffffffffffffffffffffffffffffffffffff1614159050919050565b505050565b505050565b60006118c18473ffffffffffffffffffffffffffffffffffffffff16611a37565b15611a2a578373ffffffffffffffffffffffffffffffffffffffff1663150b7a026118ea610f9c565b8786866040518563ffffffff1660e01b815260040161190c94939291906121d6565b602060405180830381600087803b15801561192657600080fd5b505af192505050801561195757506040513d601f19601f820116820180604052508101906119549190611d2a565b60015b6119da573d8060008114611987576040519150601f19603f3d011682016040523d82523d6000602084013e61198c565b606091505b506000815114156119d2576040517f08c379a00000000000000000000000000000000000000000000000000000000081526004016119c9906122db565b60405180910390fd5b805181602001fd5b63150b7a0260e01b7bffffffffffffffffffffffffffffffffffffffffffffffffffffffff1916817bffffffffffffffffffffffffffffffffffffffffffffffffffffffff191614915050611a2f565b600190505b949350505050565b6000808273ffffffffffffffffffffffffffffffffffffffff163b119050919050565b6040518060a0016040528060608152602001606081526020016000815260200160008152602001600081525090565b6000611a9c611a978461249d565b612478565b905082815260208101848484011115611ab457600080fd5b611abf84828561269f565b509392505050565b600081359050611ad681612b7e565b92915050565b600081359050611aeb81612b95565b92915050565b600081359050611b0081612bac565b92915050565b600081519050611b1581612bac565b92915050565b600082601f830112611b2c57600080fd5b8135611b3c848260208601611a89565b91505092915050565b600081359050611b5481612bc3565b92915050565b600060208284031215611b6c57600080fd5b6000611b7a84828501611ac7565b91505092915050565b60008060408385031215611b9657600080fd5b6000611ba485828601611ac7565b9250506020611bb585828601611ac7565b9150509250929050565b600080600060608486031215611bd457600080fd5b6000611be286828701611ac7565b9350506020611bf386828701611ac7565b9250506040611c0486828701611b45565b9150509250925092565b60008060008060808587031215611c2457600080fd5b6000611c3287828801611ac7565b9450506020611c4387828801611ac7565b9350506040611c5487828801611b45565b925050606085013567ffffffffffffffff811115611c7157600080fd5b611c7d87828801611b1b565b91505092959194509250565b60008060408385031215611c9c57600080fd5b6000611caa85828601611ac7565b9250506020611cbb85828601611adc565b9150509250929050565b60008060408385031215611cd857600080fd5b6000611ce685828601611ac7565b9250506020611cf785828601611b45565b9150509250929050565b600060208284031215611d1357600080fd5b6000611d2184828501611af1565b91505092915050565b600060208284031215611d3c57600080fd5b6000611d4a84828501611b06565b91505092915050565b600060208284031215611d6557600080fd5b6000611d7384828501611b45565b91505092915050565b6000611d888383611d94565b60208301905092915050565b611d9d8161262b565b82525050565b611dac8161262b565b82525050565b6000611dbd826124f3565b611dc78185612521565b9350611dd2836124ce565b8060005b83811015611e03578151611dea8882611d7c565b9750611df583612514565b925050600181019050611dd6565b5085935050505092915050565b611e198161263d565b82525050565b6000611e2a826124fe565b611e348185612532565b9350611e448185602086016126ae565b611e4d8161287a565b840191505092915050565b6000611e6382612509565b611e6d8185612543565b9350611e7d8185602086016126ae565b611e868161287a565b840191505092915050565b6000611e9c82612509565b611ea68185612554565b9350611eb68185602086016126ae565b611ebf8161287a565b840191505092915050565b6000611ed582612509565b611edf8185612565565b9350611eef8185602086016126ae565b80840191505092915050565b60008154611f08816126e1565b611f128186612554565b94506001821660008114611f2d5760018114611f3f57611f72565b60ff1983168652602086019350611f72565b611f48856124de565b60005b83811015611f6a57815481890152600182019150602081019050611f4b565b808801955050505b50505092915050565b6000611f88603283612554565b9150611f938261288b565b604082019050919050565b6000611fab602683612554565b9150611fb6826128da565b604082019050919050565b6000611fce602583612554565b9150611fd982612929565b604082019050919050565b6000611ff1602483612554565b9150611ffc82612978565b604082019050919050565b6000612014601983612554565b915061201f826129c7565b602082019050919050565b6000612037602983612554565b9150612042826129f0565b604082019050919050565b600061205a603e83612554565b915061206582612a3f565b604082019050919050565b600061207d602083612554565b915061208882612a8e565b602082019050919050565b60006120a0601883612554565b91506120ab82612ab7565b602082019050919050565b60006120c3602183612554565b91506120ce82612ae0565b604082019050919050565b60006120e6602e83612554565b91506120f182612b2f565b604082019050919050565b600060a08301600083015184820360008601526121198282611db2565b915050602083015184820360208601526121338282611e58565b91505060408301516121486040860182612179565b50606083015161215b6060860182612179565b50608083015161216e6080860182612179565b508091505092915050565b61218281612695565b82525050565b61219181612695565b82525050565b60006121a38285611eca565b91506121af8284611eca565b91508190509392505050565b60006020820190506121d06000830184611da3565b92915050565b60006080820190506121eb6000830187611da3565b6121f86020830186611da3565b6122056040830185612188565b81810360608301526122178184611e1f565b905095945050505050565b60006020820190506122376000830184611e10565b92915050565b600060208201905081810360008301526122578184611e91565b905092915050565b600060808201905081810360008301526122798187611e91565b90506122886020830186612188565b6122956040830185612188565b6122a26060830184612188565b95945050505050565b600060408201905081810360008301526122c58185611efb565b90506122d46020830184612188565b9392505050565b600060208201905081810360008301526122f481611f7b565b9050919050565b6000602082019050818103600083015261231481611f9e565b9050919050565b6000602082019050818103600083015261233481611fc1565b9050919050565b6000602082019050818103600083015261235481611fe4565b9050919050565b6000602082019050818103600083015261237481612007565b9050919050565b600060208201905081810360008301526123948161202a565b9050919050565b600060208201905081810360008301526123b48161204d565b9050919050565b600060208201905081810360008301526123d481612070565b9050919050565b600060208201905081810360008301526123f481612093565b9050919050565b60006020820190508181036000830152612414816120b6565b9050919050565b60006020820190508181036000830152612434816120d9565b9050919050565b6000602082019050818103600083015261245581846120fc565b905092915050565b60006020820190506124726000830184612188565b92915050565b6000612482612493565b905061248e8282612713565b919050565b6000604051905090565b600067ffffffffffffffff8211156124b8576124b761284b565b5b6124c18261287a565b9050602081019050919050565b6000819050602082019050919050565b60008190508160005260206000209050919050565b600081519050919050565b600081519050919050565b600081519050919050565b6000602082019050919050565b600082825260208201905092915050565b600082825260208201905092915050565b600082825260208201905092915050565b600082825260208201905092915050565b600081905092915050565b600061257b82612695565b915061258683612695565b9250827fffffffffffffffffffffffffffffffffffffffffffffffffffffffffffffffff038211156125bb576125ba6127be565b5b828201905092915050565b60006125d182612695565b91506125dc83612695565b9250826125ec576125eb6127ed565b5b828204905092915050565b600061260282612695565b915061260d83612695565b9250828210156126205761261f6127be565b5b828203905092915050565b600061263682612675565b9050919050565b60008115159050919050565b60007fffffffff0000000000000000000000000000000000000000000000000000000082169050919050565b600073ffffffffffffffffffffffffffffffffffffffff82169050919050565b6000819050919050565b82818337600083830152505050565b60005b838110156126cc5780820151818401526020810190506126b1565b838111156126db576000848401525b50505050565b600060028204905060018216806126f957607f821691505b6020821081141561270d5761270c61281c565b5b50919050565b61271c8261287a565b810181811067ffffffffffffffff8211171561273b5761273a61284b565b5b80604052505050565b600061274f82612695565b91507fffffffffffffffffffffffffffffffffffffffffffffffffffffffffffffffff821415612782576127816127be565b5b600182019050919050565b600061279882612695565b91506127a383612695565b9250826127b3576127b26127ed565b5b828206905092915050565b7f4e487b7100000000000000000000000000000000000000000000000000000000600052601160045260246000fd5b7f4e487b7100000000000000000000000000000000000000000000000000000000600052601260045260246000fd5b7f4e487b7100000000000000000000000000000000000000000000000000000000600052602260045260246000fd5b7f4e487b7100000000000000000000000000000000000000000000000000000000600052604160045260246000fd5b6000601f19601f8301169050919050565b7f4552433732313a207472616e7366657220746f206e6f6e20455243373231526560008201527f63656976657220696d706c656d656e7465720000000000000000000000000000602082015250565b7f4f776e61626c653a206e6577206f776e657220697320746865207a65726f206160008201527f6464726573730000000000000000000000000000000000000000000000000000602082015250565b7f4552433732313a207472616e736665722066726f6d20696e636f72726563742060008201527f6f776e6572000000000000000000000000000000000000000000000000000000602082015250565b7f4552433732313a207472616e7366657220746f20746865207a65726f2061646460008201527f7265737300000000000000000000000000000000000000000000000000000000602082015250565b7f4552433732313a20617070726f766520746f2063616c6c657200000000000000600082015250565b7f4552433732313a2061646472657373207a65726f206973206e6f74206120766160008201527f6c6964206f776e65720000000000000000000000000000000000000000000000602082015250565b7f4552433732313a20617070726f76652063616c6c6572206973206e6f7420746f60008201527f6b656e206f776e6572206e6f7220617070726f76656420666f7220616c6c0000602082015250565b7f4f776e61626c653a2063616c6c6572206973206e6f7420746865206f776e6572600082015250565b7f4552433732313a20696e76616c696420746f6b656e2049440000000000000000600082015250565b7f4552433732313a20617070726f76616c20746f2063757272656e74206f776e6560008201527f7200000000000000000000000000000000000000000000000000000000000000602082015250565b7f4552433732313a2063616c6c6572206973206e6f7420746f6b656e206f776e6560008201527f72206e6f7220617070726f766564000000000000000000000000000000000000602082015250565b612b878161262b565b8114612b9257600080fd5b50565b612b9e8161263d565b8114612ba957600080fd5b50565b612bb581612649565b8114612bc057600080fd5b50565b612bcc81612695565b8114612bd757600080fd5b5056fea26469706673582212206da00404e3c7102560a3b1150f9bd818415997220ac3381fcb6ddf63d838ed4d64736f6c63430008040033",
  "linkReferences": {},
  "deployedLinkReferences": {}
}