{
  "_format": "hh-sol-artifact-1",
  "contractName": "Broker",
  "sourceName": "contracts/Broker.sol",
  "abi": [
    {
      "inputs": [
        {
          "internalType": "address",
          "name": "_asset",
          "type": "address"
        },
        {
          "internalType": "string",
          "name": "_name",
          "type": "string"
        },
        {
          "internalType": "string",
          "name": "_symbol",
          "type": "string"
        }
      ],
      "stateMutability": "nonpayable",
      "type": "constructor"
    },
    {
      "anonymous": false,
      "inputs": [
        {
          "indexed": true,
          "internalType": "address",
          "name": "owner",
          "type": "address"
        },
        {
          "indexed": true,
          "internalType": "address",
          "name": "spender",
          "type": "address"
        },
        {
          "indexed": false,
          "internalType": "uint256",
          "name": "value",
          "type": "uint256"
        }
      ],
      "name": "Approval",
      "type": "event"
    },
    {
      "anonymous": false,
      "inputs": [
        {
          "indexed": false,
          "internalType": "address",
          "name": "caller",
          "type": "address"
        },
        {
          "indexed": false,
          "internalType": "uint256",
          "name": "amt",
          "type": "uint256"
        }
      ],
      "name": "Deposit",
      "type": "event"
    },
    {
      "anonymous": false,
      "inputs": [
        {
          "indexed": true,
          "internalType": "address",
          "name": "from",
          "type": "address"
        },
        {
          "indexed": true,
          "internalType": "address",
          "name": "to",
          "type": "address"
        },
        {
          "indexed": false,
          "internalType": "uint256",
          "name": "value",
          "type": "uint256"
        }
      ],
      "name": "Transfer",
      "type": "event"
    },
    {
      "anonymous": false,
      "inputs": [
        {
          "indexed": false,
          "internalType": "address",
          "name": "caller",
          "type": "address"
        },
        {
          "indexed": false,
          "internalType": "address",
          "name": "receiver",
          "type": "address"
        },
        {
          "indexed": false,
          "internalType": "uint256",
          "name": "amt",
          "type": "uint256"
        }
      ],
      "name": "Withdraw",
      "type": "event"
    },
    {
      "inputs": [
        {
          "internalType": "address",
          "name": "owner",
          "type": "address"
        },
        {
          "internalType": "address",
          "name": "spender",
          "type": "address"
        }
      ],
      "name": "allowance",
      "outputs": [
        {
          "internalType": "uint256",
          "name": "",
          "type": "uint256"
        }
      ],
      "stateMutability": "view",
      "type": "function"
    },
    {
      "inputs": [
        {
          "internalType": "address",
          "name": "spender",
          "type": "address"
        },
        {
          "internalType": "uint256",
          "name": "amount",
          "type": "uint256"
        }
      ],
      "name": "approve",
      "outputs": [
        {
          "internalType": "bool",
          "name": "",
          "type": "bool"
        }
      ],
      "stateMutability": "nonpayable",
      "type": "function"
    },
    {
      "inputs": [],
      "name": "asset",
      "outputs": [
        {
          "internalType": "contract ERC20",
          "name": "",
          "type": "address"
        }
      ],
      "stateMutability": "view",
      "type": "function"
    },
    {
      "inputs": [
        {
          "internalType": "address",
          "name": "account",
          "type": "address"
        }
      ],
      "name": "balanceOf",
      "outputs": [
        {
          "internalType": "uint256",
          "name": "",
          "type": "uint256"
        }
      ],
      "stateMutability": "view",
      "type": "function"
    },
    {
      "inputs": [],
      "name": "decimals",
      "outputs": [
        {
          "internalType": "uint8",
          "name": "",
          "type": "uint8"
        }
      ],
      "stateMutability": "view",
      "type": "function"
    },
    {
      "inputs": [
        {
          "internalType": "address",
          "name": "spender",
          "type": "address"
        },
        {
          "internalType": "uint256",
          "name": "subtractedValue",
          "type": "uint256"
        }
      ],
      "name": "decreaseAllowance",
      "outputs": [
        {
          "internalType": "bool",
          "name": "",
          "type": "bool"
        }
      ],
      "stateMutability": "nonpayable",
      "type": "function"
    },
    {
      "inputs": [
        {
          "internalType": "uint256",
          "name": "amount",
          "type": "uint256"
        }
      ],
      "name": "deposit",
      "outputs": [],
      "stateMutability": "nonpayable",
      "type": "function"
    },
    {
      "inputs": [],
      "name": "flightPolicy",
      "outputs": [
        {
          "internalType": "contract FlightPolicy",
          "name": "",
          "type": "address"
        }
      ],
      "stateMutability": "view",
      "type": "function"
    },
    {
      "inputs": [
        {
          "internalType": "address",
          "name": "spender",
          "type": "address"
        },
        {
          "internalType": "uint256",
          "name": "addedValue",
          "type": "uint256"
        }
      ],
      "name": "increaseAllowance",
      "outputs": [
        {
          "internalType": "bool",
          "name": "",
          "type": "bool"
        }
      ],
      "stateMutability": "nonpayable",
      "type": "function"
    },
    {
      "inputs": [
        {
          "internalType": "uint256",
          "name": "shares",
          "type": "uint256"
        },
        {
          "internalType": "address",
          "name": "receiver",
          "type": "address"
        }
      ],
      "name": "lpWithdraw",
      "outputs": [],
      "stateMutability": "nonpayable",
      "type": "function"
    },
    {
      "inputs": [
        {
          "components": [
            {
              "internalType": "address[]",
              "name": "subscribers",
              "type": "address[]"
            },
            {
              "internalType": "string",
              "name": "flightn",
              "type": "string"
            },
            {
              "internalType": "uint256",
              "name": "premium",
              "type": "uint256"
            },
            {
              "internalType": "uint256",
              "name": "refund",
              "type": "uint256"
            },
            {
              "internalType": "uint256",
              "name": "expiryTimestamp",
              "type": "uint256"
            }
          ],
          "internalType": "struct Policy",
          "name": "_policy",
          "type": "tuple"
        },
        {
          "internalType": "address",
          "name": "_subscriber",
          "type": "address"
        }
      ],
      "name": "managePolicies",
      "outputs": [],
      "stateMutability": "nonpayable",
      "type": "function"
    },
    {
      "inputs": [],
      "name": "name",
      "outputs": [
        {
          "internalType": "string",
          "name": "",
          "type": "string"
        }
      ],
      "stateMutability": "view",
      "type": "function"
    },
    {
      "inputs": [
        {
          "internalType": "address",
          "name": "_repepitNFTAddress",
          "type": "address"
        }
      ],
      "name": "refundSubscriber",
      "outputs": [],
      "stateMutability": "nonpayable",
      "type": "function"
    },
    {
      "inputs": [
        {
          "internalType": "uint256",
          "name": "shares",
          "type": "uint256"
        }
      ],
      "name": "sharesValue",
      "outputs": [
        {
          "internalType": "uint256",
          "name": "value",
          "type": "uint256"
        }
      ],
      "stateMutability": "view",
      "type": "function"
    },
    {
      "inputs": [],
      "name": "symbol",
      "outputs": [
        {
          "internalType": "string",
          "name": "",
          "type": "string"
        }
      ],
      "stateMutability": "view",
      "type": "function"
    },
    {
      "inputs": [],
      "name": "totalSupply",
      "outputs": [
        {
          "internalType": "uint256",
          "name": "",
          "type": "uint256"
        }
      ],
      "stateMutability": "view",
      "type": "function"
    },
    {
      "inputs": [],
      "name": "totalamount",
      "outputs": [
        {
          "internalType": "uint256",
          "name": "",
          "type": "uint256"
        }
      ],
      "stateMutability": "view",
      "type": "function"
    },
    {
      "inputs": [
        {
          "internalType": "address",
          "name": "to",
          "type": "address"
        },
        {
          "internalType": "uint256",
          "name": "amount",
          "type": "uint256"
        }
      ],
      "name": "transfer",
      "outputs": [
        {
          "internalType": "bool",
          "name": "",
          "type": "bool"
        }
      ],
      "stateMutability": "nonpayable",
      "type": "function"
    },
    {
      "inputs": [
        {
          "internalType": "address",
          "name": "from",
          "type": "address"
        },
        {
          "internalType": "address",
          "name": "to",
          "type": "address"
        },
        {
          "internalType": "uint256",
          "name": "amount",
          "type": "uint256"
        }
      ],
      "name": "transferFrom",
      "outputs": [
        {
          "internalType": "bool",
          "name": "",
          "type": "bool"
        }
      ],
      "stateMutability": "nonpayable",
      "type": "function"
    }
  ],
  "bytecode": "0x60a06040523480156200001157600080fd5b506040516200a6433803806200a6438339818101604052810190620000379190620001e6565b8181816003908051906020019062000051929190620000ad565b5080600490805190602001906200006a929190620000ad565b5050508273ffffffffffffffffffffffffffffffffffffffff1660808173ffffffffffffffffffffffffffffffffffffffff1660601b815250505050506200042c565b828054620000bb9062000337565b90600052602060002090601f016020900481019282620000df57600085556200012b565b82601f10620000fa57805160ff19168380011785556200012b565b828001600101855582156200012b579182015b828111156200012a5782518255916020019190600101906200010d565b5b5090506200013a91906200013e565b5090565b5b80821115620001595760008160009055506001016200013f565b5090565b6000620001746200016e8462000297565b6200026e565b9050828152602081018484840111156200018d57600080fd5b6200019a84828562000301565b509392505050565b600081519050620001b38162000412565b92915050565b600082601f830112620001cb57600080fd5b8151620001dd8482602086016200015d565b91505092915050565b600080600060608486031215620001fc57600080fd5b60006200020c86828701620001a2565b935050602084015167ffffffffffffffff8111156200022a57600080fd5b6200023886828701620001b9565b925050604084015167ffffffffffffffff8111156200025657600080fd5b6200026486828701620001b9565b9150509250925092565b60006200027a6200028d565b90506200028882826200036d565b919050565b6000604051905090565b600067ffffffffffffffff821115620002b557620002b4620003d2565b5b620002c08262000401565b9050602081019050919050565b6000620002da82620002e1565b9050919050565b600073ffffffffffffffffffffffffffffffffffffffff82169050919050565b60005b838110156200032157808201518184015260208101905062000304565b8381111562000331576000848401525b50505050565b600060028204905060018216806200035057607f821691505b60208210811415620003675762000366620003a3565b5b50919050565b620003788262000401565b810181811067ffffffffffffffff821117156200039a5762000399620003d2565b5b80604052505050565b7f4e487b7100000000000000000000000000000000000000000000000000000000600052602260045260246000fd5b7f4e487b7100000000000000000000000000000000000000000000000000000000600052604160045260246000fd5b6000601f19601f8301169050919050565b6200041d81620002cd565b81146200042957600080fd5b50565b60805160601c61a1d56200046e600039600081816105900152818161061201528181610a5001528181610bcb01528181610d6d0152611580015261a1d56000f3fe60806040523480156200001157600080fd5b50600436106200013c5760003560e01c806350e3b15711620000bd5780639ca0cf2a116200007b5780639ca0cf2a146200037b578063a457c2d7146200039d578063a9059cbb14620003d3578063b6b55f251462000409578063dd62ed3e1462000429576200013c565b806350e3b15714620002ad578063690a12bc14620002e357806370a082311462000303578063948b56a3146200033957806395d89b411462000359576200013c565b806323b872dd116200010b57806323b872dd14620001dd578063313ce567146200021357806338d52e0f14620002355780633950935114620002575780633b47f346146200028d576200013c565b806306fdde031462000141578063071165101462000163578063095ea7b3146200018557806318160ddd14620001bb575b600080fd5b6200014b6200045f565b6040516200015a91906200263f565b60405180910390f35b6200016d620004f9565b6040516200017c919062002622565b60405180910390f35b620001a360048036038101906200019d919062001f35565b6200051f565b604051620001b29190620025e8565b60405180910390f35b620001c562000546565b604051620001d4919062002883565b60405180910390f35b620001fb6004803603810190620001f5919062001edf565b62000550565b6040516200020a9190620025e8565b60405180910390f35b6200021d62000585565b6040516200022c9190620028a0565b60405180910390f35b6200023f6200058e565b6040516200024e919062002605565b60405180910390f35b6200027560048036038101906200026f919062001f35565b620005b2565b604051620002849190620025e8565b60405180910390f35b620002ab6004803603810190620002a5919062002099565b620005f1565b005b620002cb6004803603810190620002c5919062002041565b620006ca565b604051620002da919062002883565b60405180910390f35b620003016004803603810190620002fb919062001fe7565b620006ea565b005b6200032160048036038101906200031b919062001e46565b620008ec565b60405162000330919062002883565b60405180910390f35b62000357600480360381019062000351919062001e46565b62000934565b005b6200036362000b2d565b6040516200037291906200263f565b60405180910390f35b6200038562000bc7565b60405162000394919062002883565b60405180910390f35b620003bb6004803603810190620003b5919062001f35565b62000c7d565b604051620003ca9190620025e8565b60405180910390f35b620003f16004803603810190620003eb919062001f35565b62000cfd565b604051620004009190620025e8565b60405180910390f35b62000427600480360381019062000421919062002041565b62000d24565b005b62000447600480360381019062000441919062001e9e565b62000ec3565b60405162000456919062002883565b60405180910390f35b606060038054620004709062002b78565b80601f01602080910402602001604051908101604052809291908181526020018280546200049e9062002b78565b8015620004ef5780601f10620004c357610100808354040283529160200191620004ef565b820191906000526020600020905b815481529060010190602001808311620004d157829003601f168201915b5050505050905090565b600560009054906101000a900473ffffffffffffffffffffffffffffffffffffffff1681565b6000806200052c62000f4a565b90506200053b81858562000f52565b600191505092915050565b6000600254905090565b6000806200055d62000f4a565b90506200056c85828562001125565b62000579858585620011b9565b60019150509392505050565b60006012905090565b7f000000000000000000000000000000000000000000000000000000000000000081565b600080620005bf62000f4a565b9050620005e6818585620005d4858962000ec3565b620005e09190620029bc565b62000f52565b600191505092915050565b6000620005ff83836200144b565b905060006200060e82620006ca565b90507f000000000000000000000000000000000000000000000000000000000000000073ffffffffffffffffffffffffffffffffffffffff1663a9059cbb84836040518363ffffffff1660e01b81526004016200066d929190620025bb565b602060405180830381600087803b1580156200068857600080fd5b505af11580156200069d573d6000803e3d6000fd5b505050506040513d601f19601f82011682018060405250810190620006c3919062001f76565b5050505050565b600081620006d762000bc7565b620006e3919062002a19565b9050919050565b6000620006f662000bc7565b1162000739576040517f08c379a00000000000000000000000000000000000000000000000000000000081526004016200073090620027b7565b60405180910390fd5b6006546200074662000bc7565b1162000789576040517f08c379a00000000000000000000000000000000000000000000000000000000081526004016200078090620027fb565b60405180910390fd5b600073ffffffffffffffffffffffffffffffffffffffff1660088360200151604051620007b7919062002548565b908152602001604051809103902060009054906101000a900473ffffffffffffffffffffffffffffffffffffffff1673ffffffffffffffffffffffffffffffffffffffff161415620008bc576008826020015160405162000819919062002548565b908152602001604051809103902060009054906101000a900473ffffffffffffffffffffffffffffffffffffffff1673ffffffffffffffffffffffffffffffffffffffff166394555d1a826040518263ffffffff1660e01b815260040162000882919062002561565b600060405180830381600087803b1580156200089d57600080fd5b505af1158015620008b2573d6000803e3d6000fd5b50505050620008c9565b620008c882826200157b565b5b816060015160066000828254620008e19190620029bc565b925050819055505050565b60008060008373ffffffffffffffffffffffffffffffffffffffff1673ffffffffffffffffffffffffffffffffffffffff168152602001908152602001600020549050919050565b600081905060008173ffffffffffffffffffffffffffffffffffffffff1663ce1e46266040518163ffffffff1660e01b8152600401600060405180830381600087803b1580156200098457600080fd5b505af115801562000999573d6000803e3d6000fd5b505050506040513d6000823e3d601f19601f82011682018060405250810190620009c4919062001fa2565b905060008273ffffffffffffffffffffffffffffffffffffffff1663aeddc49f6040518163ffffffff1660e01b8152600401602060405180830381600087803b15801562000a1157600080fd5b505af115801562000a26573d6000803e3d6000fd5b505050506040513d601f19601f8201168201806040525081019062000a4c919062001e72565b90507f000000000000000000000000000000000000000000000000000000000000000073ffffffffffffffffffffffffffffffffffffffff166323b872dd308385606001516040518463ffffffff1660e01b815260040162000ab1939291906200257e565b602060405180830381600087803b15801562000acc57600080fd5b505af115801562000ae1573d6000803e3d6000fd5b505050506040513d601f19601f8201168201806040525081019062000b07919062001f76565b5081606001516006600082825462000b20919062002a51565b9250508190555050505050565b60606004805462000b3e9062002b78565b80601f016020809104026020016040519081016040528092919081815260200182805462000b6c9062002b78565b801562000bbd5780601f1062000b915761010080835404028352916020019162000bbd565b820191906000526020600020905b81548152906001019060200180831162000b9f57829003601f168201915b5050505050905090565b60007f000000000000000000000000000000000000000000000000000000000000000073ffffffffffffffffffffffffffffffffffffffff166370a08231306040518263ffffffff1660e01b815260040162000c24919062002561565b60206040518083038186803b15801562000c3d57600080fd5b505afa15801562000c52573d6000803e3d6000fd5b505050506040513d601f19601f8201168201806040525081019062000c7891906200206d565b905090565b60008062000c8a62000f4a565b9050600062000c9a828662000ec3565b90508381101562000ce2576040517f08c379a000000000000000000000000000000000000000000000000000000000815260040162000cd990620027d9565b60405180910390fd5b62000cf1828686840362000f52565b60019250505092915050565b60008062000d0a62000f4a565b905062000d19818585620011b9565b600191505092915050565b600081101562000d6b576040517f08c379a000000000000000000000000000000000000000000000000000000000815260040162000d62906200272f565b60405180910390fd5b7f000000000000000000000000000000000000000000000000000000000000000073ffffffffffffffffffffffffffffffffffffffff166323b872dd3330846040518463ffffffff1660e01b815260040162000dca939291906200257e565b602060405180830381600087803b15801562000de557600080fd5b505af115801562000dfa573d6000803e3d6000fd5b505050506040513d601f19601f8201168201806040525081019062000e20919062001f76565b5080600760003373ffffffffffffffffffffffffffffffffffffffff1673ffffffffffffffffffffffffffffffffffffffff168152602001908152602001600020600082825462000e729190620029bc565b9250508190555062000e853382620016b3565b7fe1fffcc4923d04b559f4d29a8bfc6cda04eb5b0d3c460751c2402c5c5cc9109c338260405162000eb8929190620025bb565b60405180910390a150565b6000600160008473ffffffffffffffffffffffffffffffffffffffff1673ffffffffffffffffffffffffffffffffffffffff16815260200190815260200160002060008373ffffffffffffffffffffffffffffffffffffffff1673ffffffffffffffffffffffffffffffffffffffff16815260200190815260200160002054905092915050565b600033905090565b600073ffffffffffffffffffffffffffffffffffffffff168373ffffffffffffffffffffffffffffffffffffffff16141562000fc5576040517f08c379a000000000000000000000000000000000000000000000000000000000815260040162000fbc9062002795565b60405180910390fd5b600073ffffffffffffffffffffffffffffffffffffffff168273ffffffffffffffffffffffffffffffffffffffff16141562001038576040517f08c379a00000000000000000000000000000000000000000000000000000000081526004016200102f90620026a7565b60405180910390fd5b80600160008573ffffffffffffffffffffffffffffffffffffffff1673ffffffffffffffffffffffffffffffffffffffff16815260200190815260200160002060008473ffffffffffffffffffffffffffffffffffffffff1673ffffffffffffffffffffffffffffffffffffffff168152602001908152602001600020819055508173ffffffffffffffffffffffffffffffffffffffff168373ffffffffffffffffffffffffffffffffffffffff167f8c5be1e5ebec7d5bd14f71427d1e84f3dd0314c0f7b2291e5b200ac8c7c3b9258360405162001118919062002883565b60405180910390a3505050565b600062001133848462000ec3565b90507fffffffffffffffffffffffffffffffffffffffffffffffffffffffffffffffff8114620011b35781811015620011a3576040517f08c379a00000000000000000000000000000000000000000000000000000000081526004016200119a90620026c9565b60405180910390fd5b620011b2848484840362000f52565b5b50505050565b600073ffffffffffffffffffffffffffffffffffffffff168373ffffffffffffffffffffffffffffffffffffffff1614156200122c576040517f08c379a0000000000000000000000000000000000000000000000000000000008152600401620012239062002773565b60405180910390fd5b600073ffffffffffffffffffffffffffffffffffffffff168273ffffffffffffffffffffffffffffffffffffffff1614156200129f576040517f08c379a0000000000000000000000000000000000000000000000000000000008152600401620012969062002663565b60405180910390fd5b620012ac83838362001820565b60008060008573ffffffffffffffffffffffffffffffffffffffff1673ffffffffffffffffffffffffffffffffffffffff1681526020019081526020016000205490508181101562001335576040517f08c379a00000000000000000000000000000000000000000000000000000000081526004016200132c90620026eb565b60405180910390fd5b8181036000808673ffffffffffffffffffffffffffffffffffffffff1673ffffffffffffffffffffffffffffffffffffffff16815260200190815260200160002081905550816000808573ffffffffffffffffffffffffffffffffffffffff1673ffffffffffffffffffffffffffffffffffffffff1681526020019081526020016000206000828254620013ca9190620029bc565b925050819055508273ffffffffffffffffffffffffffffffffffffffff168473ffffffffffffffffffffffffffffffffffffffff167fddf252ad1be2c89b69c2b068fc378daa952ba7f163c4a11628f55a4df523b3ef8460405162001430919062002883565b60405180910390a36200144584848462001825565b50505050565b600080600760003373ffffffffffffffffffffffffffffffffffffffff1673ffffffffffffffffffffffffffffffffffffffff1681526020019081526020016000205411620014d1576040517f08c379a0000000000000000000000000000000000000000000000000000000008152600401620014c8906200270d565b60405180910390fd5b82600760003373ffffffffffffffffffffffffffffffffffffffff1673ffffffffffffffffffffffffffffffffffffffff168152602001908152602001600020600082825462001522919062002a51565b925050819055506200153533846200182a565b8290507f9b1bfa7fa9ee420a16e124f794c35ac9f90472acc99140eb2f6447c714cad8eb3383836040516200156d939291906200257e565b60405180910390a192915050565b6000827f000000000000000000000000000000000000000000000000000000000000000030604051620015ae9062001a0f565b620015bc939291906200283f565b604051809103906000f080158015620015d9573d6000803e3d6000fd5b5090508060088460200151604051620015f3919062002548565b908152602001604051809103902060006101000a81548173ffffffffffffffffffffffffffffffffffffffff021916908373ffffffffffffffffffffffffffffffffffffffff1602179055508073ffffffffffffffffffffffffffffffffffffffff166394555d1a836040518263ffffffff1660e01b81526004016200167a919062002561565b600060405180830381600087803b1580156200169557600080fd5b505af1158015620016aa573d6000803e3d6000fd5b50505050505050565b600073ffffffffffffffffffffffffffffffffffffffff168273ffffffffffffffffffffffffffffffffffffffff16141562001726576040517f08c379a00000000000000000000000000000000000000000000000000000000081526004016200171d906200281d565b60405180910390fd5b620017346000838362001820565b8060026000828254620017489190620029bc565b92505081905550806000808473ffffffffffffffffffffffffffffffffffffffff1673ffffffffffffffffffffffffffffffffffffffff16815260200190815260200160002060008282546200179f9190620029bc565b925050819055508173ffffffffffffffffffffffffffffffffffffffff16600073ffffffffffffffffffffffffffffffffffffffff167fddf252ad1be2c89b69c2b068fc378daa952ba7f163c4a11628f55a4df523b3ef8360405162001806919062002883565b60405180910390a36200181c6000838362001825565b5050565b505050565b505050565b600073ffffffffffffffffffffffffffffffffffffffff168273ffffffffffffffffffffffffffffffffffffffff1614156200189d576040517f08c379a0000000000000000000000000000000000000000000000000000000008152600401620018949062002751565b60405180910390fd5b620018ab8260008362001820565b60008060008473ffffffffffffffffffffffffffffffffffffffff1673ffffffffffffffffffffffffffffffffffffffff1681526020019081526020016000205490508181101562001934576040517f08c379a00000000000000000000000000000000000000000000000000000000081526004016200192b9062002685565b60405180910390fd5b8181036000808573ffffffffffffffffffffffffffffffffffffffff1673ffffffffffffffffffffffffffffffffffffffff1681526020019081526020016000208190555081600260008282546200198d919062002a51565b92505081905550600073ffffffffffffffffffffffffffffffffffffffff168373ffffffffffffffffffffffffffffffffffffffff167fddf252ad1be2c89b69c2b068fc378daa952ba7f163c4a11628f55a4df523b3ef84604051620019f4919062002883565b60405180910390a362001a0a8360008462001825565b505050565b617132806200306e83390190565b600062001a3462001a2e84620028e6565b620028bd565b9050808382526020820190508285602086028201111562001a5457600080fd5b60005b8581101562001a88578162001a6d888262001b91565b84526020840193506020830192505060018101905062001a57565b5050509392505050565b600062001aa962001aa384620028e6565b620028bd565b9050808382526020820190508285602086028201111562001ac957600080fd5b60005b8581101562001afd578162001ae2888262001ba8565b84526020840193506020830192505060018101905062001acc565b5050509392505050565b600062001b1e62001b188462002915565b620028bd565b90508281526020810184848401111562001b3757600080fd5b62001b4484828562002b33565b509392505050565b600062001b6362001b5d8462002915565b620028bd565b90508281526020810184848401111562001b7c57600080fd5b62001b8984828562002b42565b509392505050565b60008135905062001ba2816200301f565b92915050565b60008151905062001bb9816200301f565b92915050565b600082601f83011262001bd157600080fd5b813562001be384826020860162001a1d565b91505092915050565b600082601f83011262001bfe57600080fd5b815162001c1084826020860162001a92565b91505092915050565b60008151905062001c2a8162003039565b92915050565b600082601f83011262001c4257600080fd5b813562001c5484826020860162001b07565b91505092915050565b600082601f83011262001c6f57600080fd5b815162001c8184826020860162001b4c565b91505092915050565b600060a0828403121562001c9d57600080fd5b62001ca960a0620028bd565b9050600082013567ffffffffffffffff81111562001cc657600080fd5b62001cd48482850162001bbf565b600083015250602082013567ffffffffffffffff81111562001cf557600080fd5b62001d038482850162001c30565b602083015250604062001d198482850162001e18565b604083015250606062001d2f8482850162001e18565b606083015250608062001d458482850162001e18565b60808301525092915050565b600060a0828403121562001d6457600080fd5b62001d7060a0620028bd565b9050600082015167ffffffffffffffff81111562001d8d57600080fd5b62001d9b8482850162001bec565b600083015250602082015167ffffffffffffffff81111562001dbc57600080fd5b62001dca8482850162001c5d565b602083015250604062001de08482850162001e2f565b604083015250606062001df68482850162001e2f565b606083015250608062001e0c8482850162001e2f565b60808301525092915050565b60008135905062001e298162003053565b92915050565b60008151905062001e408162003053565b92915050565b60006020828403121562001e5957600080fd5b600062001e698482850162001b91565b91505092915050565b60006020828403121562001e8557600080fd5b600062001e958482850162001ba8565b91505092915050565b6000806040838503121562001eb257600080fd5b600062001ec28582860162001b91565b925050602062001ed58582860162001b91565b9150509250929050565b60008060006060848603121562001ef557600080fd5b600062001f058682870162001b91565b935050602062001f188682870162001b91565b925050604062001f2b8682870162001e18565b9150509250925092565b6000806040838503121562001f4957600080fd5b600062001f598582860162001b91565b925050602062001f6c8582860162001e18565b9150509250929050565b60006020828403121562001f8957600080fd5b600062001f998482850162001c19565b91505092915050565b60006020828403121562001fb557600080fd5b600082015167ffffffffffffffff81111562001fd057600080fd5b62001fde8482850162001d51565b91505092915050565b6000806040838503121562001ffb57600080fd5b600083013567ffffffffffffffff8111156200201657600080fd5b620020248582860162001c8a565b9250506020620020378582860162001b91565b9150509250929050565b6000602082840312156200205457600080fd5b6000620020648482850162001e18565b91505092915050565b6000602082840312156200208057600080fd5b6000620020908482850162001e2f565b91505092915050565b60008060408385031215620020ad57600080fd5b6000620020bd8582860162001e18565b9250506020620020d08582860162001b91565b9150509250929050565b6000620020e88383620020f4565b60208301905092915050565b620020ff8162002a8c565b82525050565b620021108162002a8c565b82525050565b600062002123826200295b565b6200212f81856200297e565b93506200213c836200294b565b8060005b8381101562002173578151620021578882620020da565b9750620021648362002971565b92505060018101905062002140565b5085935050505092915050565b6200218b8162002aa0565b82525050565b6200219c8162002ae3565b82525050565b620021ad8162002b0b565b82525050565b6000620021c08262002966565b620021cc81856200298f565b9350620021de81856020860162002b42565b620021e98162002ca0565b840191505092915050565b6000620022018262002966565b6200220d8185620029a0565b93506200221f81856020860162002b42565b6200222a8162002ca0565b840191505092915050565b6000620022428262002966565b6200224e8185620029b1565b93506200226081856020860162002b42565b80840191505092915050565b60006200227b602383620029a0565b9150620022888262002cb1565b604082019050919050565b6000620022a2602283620029a0565b9150620022af8262002d00565b604082019050919050565b6000620022c9602283620029a0565b9150620022d68262002d4f565b604082019050919050565b6000620022f0601d83620029a0565b9150620022fd8262002d9e565b602082019050919050565b600062002317602683620029a0565b9150620023248262002dc7565b604082019050919050565b60006200233e601283620029a0565b91506200234b8262002e16565b602082019050919050565b600062002365600c83620029a0565b9150620023728262002e3f565b602082019050919050565b60006200238c602183620029a0565b9150620023998262002e68565b604082019050919050565b6000620023b3602583620029a0565b9150620023c08262002eb7565b604082019050919050565b6000620023da602483620029a0565b9150620023e78262002f06565b604082019050919050565b600062002401600983620029a0565b91506200240e8262002f55565b602082019050919050565b600062002428602583620029a0565b9150620024358262002f7e565b604082019050919050565b60006200244f601583620029a0565b91506200245c8262002fcd565b602082019050919050565b600062002476601f83620029a0565b9150620024838262002ff6565b602082019050919050565b600060a0830160008301518482036000860152620024ad828262002116565b91505060208301518482036020860152620024c98282620021b3565b9150506040830151620024e0604086018262002515565b506060830151620024f5606086018262002515565b5060808301516200250a608086018262002515565b508091505092915050565b620025208162002acc565b82525050565b620025318162002acc565b82525050565b620025428162002ad6565b82525050565b600062002556828462002235565b915081905092915050565b600060208201905062002578600083018462002105565b92915050565b600060608201905062002595600083018662002105565b620025a4602083018562002105565b620025b3604083018462002526565b949350505050565b6000604082019050620025d2600083018562002105565b620025e1602083018462002526565b9392505050565b6000602082019050620025ff600083018462002180565b92915050565b60006020820190506200261c600083018462002191565b92915050565b6000602082019050620026396000830184620021a2565b92915050565b600060208201905081810360008301526200265b8184620021f4565b905092915050565b600060208201905081810360008301526200267e816200226c565b9050919050565b60006020820190508181036000830152620026a08162002293565b9050919050565b60006020820190508181036000830152620026c281620022ba565b9050919050565b60006020820190508181036000830152620026e481620022e1565b9050919050565b60006020820190508181036000830152620027068162002308565b9050919050565b6000602082019050818103600083015262002728816200232f565b9050919050565b600060208201905081810360008301526200274a8162002356565b9050919050565b600060208201905081810360008301526200276c816200237d565b9050919050565b600060208201905081810360008301526200278e81620023a4565b9050919050565b60006020820190508181036000830152620027b081620023cb565b9050919050565b60006020820190508181036000830152620027d281620023f2565b9050919050565b60006020820190508181036000830152620027f48162002419565b9050919050565b60006020820190508181036000830152620028168162002440565b9050919050565b60006020820190508181036000830152620028388162002467565b9050919050565b600060608201905081810360008301526200285b81866200248e565b90506200286c602083018562002191565b6200287b604083018462002105565b949350505050565b60006020820190506200289a600083018462002526565b92915050565b6000602082019050620028b7600083018462002537565b92915050565b6000620028c9620028dc565b9050620028d7828262002bae565b919050565b6000604051905090565b600067ffffffffffffffff82111562002904576200290362002c71565b5b602082029050602081019050919050565b600067ffffffffffffffff82111562002933576200293262002c71565b5b6200293e8262002ca0565b9050602081019050919050565b6000819050602082019050919050565b600081519050919050565b600081519050919050565b6000602082019050919050565b600082825260208201905092915050565b600082825260208201905092915050565b600082825260208201905092915050565b600081905092915050565b6000620029c98262002acc565b9150620029d68362002acc565b9250827fffffffffffffffffffffffffffffffffffffffffffffffffffffffffffffffff0382111562002a0e5762002a0d62002be4565b5b828201905092915050565b600062002a268262002acc565b915062002a338362002acc565b92508262002a465762002a4562002c13565b5b828204905092915050565b600062002a5e8262002acc565b915062002a6b8362002acc565b92508282101562002a815762002a8062002be4565b5b828203905092915050565b600062002a998262002aac565b9050919050565b60008115159050919050565b600073ffffffffffffffffffffffffffffffffffffffff82169050919050565b6000819050919050565b600060ff82169050919050565b600062002af08262002af7565b9050919050565b600062002b048262002aac565b9050919050565b600062002b188262002b1f565b9050919050565b600062002b2c8262002aac565b9050919050565b82818337600083830152505050565b60005b8381101562002b6257808201518184015260208101905062002b45565b8381111562002b72576000848401525b50505050565b6000600282049050600182168062002b9157607f821691505b6020821081141562002ba85762002ba762002c42565b5b50919050565b62002bb98262002ca0565b810181811067ffffffffffffffff8211171562002bdb5762002bda62002c71565b5b80604052505050565b7f4e487b7100000000000000000000000000000000000000000000000000000000600052601160045260246000fd5b7f4e487b7100000000000000000000000000000000000000000000000000000000600052601260045260246000fd5b7f4e487b7100000000000000000000000000000000000000000000000000000000600052602260045260246000fd5b7f4e487b7100000000000000000000000000000000000000000000000000000000600052604160045260246000fd5b6000601f19601f8301169050919050565b7f45524332303a207472616e7366657220746f20746865207a65726f206164647260008201527f6573730000000000000000000000000000000000000000000000000000000000602082015250565b7f45524332303a206275726e20616d6f756e7420657863656564732062616c616e60008201527f6365000000000000000000000000000000000000000000000000000000000000602082015250565b7f45524332303a20617070726f766520746f20746865207a65726f20616464726560008201527f7373000000000000000000000000000000000000000000000000000000000000602082015250565b7f45524332303a20696e73756666696369656e7420616c6c6f77616e6365000000600082015250565b7f45524332303a207472616e7366657220616d6f756e742065786365656473206260008201527f616c616e63650000000000000000000000000000000000000000000000000000602082015250565b7f4e6f74206120736861726520686f6c6465720000000000000000000000000000600082015250565b7f4465706f73697420697320300000000000000000000000000000000000000000600082015250565b7f45524332303a206275726e2066726f6d20746865207a65726f2061646472657360008201527f7300000000000000000000000000000000000000000000000000000000000000602082015250565b7f45524332303a207472616e736665722066726f6d20746865207a65726f20616460008201527f6472657373000000000000000000000000000000000000000000000000000000602082015250565b7f45524332303a20617070726f76652066726f6d20746865207a65726f2061646460008201527f7265737300000000000000000000000000000000000000000000000000000000602082015250565b7f54564c2069732030210000000000000000000000000000000000000000000000600082015250565b7f45524332303a2064656372656173656420616c6c6f77616e63652062656c6f7760008201527f207a65726f000000000000000000000000000000000000000000000000000000602082015250565b7f54564c206973206c657373207468616e20545652210000000000000000000000600082015250565b7f45524332303a206d696e7420746f20746865207a65726f206164647265737300600082015250565b6200302a8162002a8c565b81146200303657600080fd5b50565b620030448162002aa0565b81146200305057600080fd5b50565b6200305e8162002acc565b81146200306a57600080fd5b5056fe60806040523480156200001157600080fd5b506040516200713238038062007132833981810160405281019062000037919062000523565b6040518060400160405280600d81526020017f466c6967687420506f6c696379000000000000000000000000000000000000008152506040518060400160405280600281526020017f46500000000000000000000000000000000000000000000000000000000000008152508160009080519060200190620000bb929190620001c4565b508060019080519060200190620000d4929190620001c4565b5050508260066000820151816000019080519060200190620000f892919062000255565b50602082015181600101908051906020019062000117929190620001c4565b5060408201518160020155606082015181600301556080820151816004015590505081600b60006101000a81548173ffffffffffffffffffffffffffffffffffffffff021916908373ffffffffffffffffffffffffffffffffffffffff16021790555080600c60006101000a81548173ffffffffffffffffffffffffffffffffffffffff021916908373ffffffffffffffffffffffffffffffffffffffff160217905550505050620007d1565b828054620001d290620006a8565b90600052602060002090601f016020900481019282620001f6576000855562000242565b82601f106200021157805160ff191683800117855562000242565b8280016001018555821562000242579182015b828111156200024157825182559160200191906001019062000224565b5b509050620002519190620002e4565b5090565b828054828255906000526020600020908101928215620002d1579160200282015b82811115620002d05782518260006101000a81548173ffffffffffffffffffffffffffffffffffffffff021916908373ffffffffffffffffffffffffffffffffffffffff1602179055509160200191906001019062000276565b5b509050620002e09190620002e4565b5090565b5b80821115620002ff576000816000905550600101620002e5565b5090565b60006200031a6200031484620005bb565b62000592565b905080838252602082019050828560208602820111156200033a57600080fd5b60005b858110156200036e5781620003538882620003bd565b8452602084019350602083019250506001810190506200033d565b5050509392505050565b60006200038f6200038984620005ea565b62000592565b905082815260208101848484011115620003a857600080fd5b620003b584828562000672565b509392505050565b600081519050620003ce8162000783565b92915050565b600082601f830112620003e657600080fd5b8151620003f884826020860162000303565b91505092915050565b60008151905062000412816200079d565b92915050565b600082601f8301126200042a57600080fd5b81516200043c84826020860162000378565b91505092915050565b600060a082840312156200045857600080fd5b6200046460a062000592565b9050600082015167ffffffffffffffff8111156200048157600080fd5b6200048f84828501620003d4565b600083015250602082015167ffffffffffffffff811115620004b057600080fd5b620004be8482850162000418565b6020830152506040620004d4848285016200050c565b6040830152506060620004ea848285016200050c565b606083015250608062000500848285016200050c565b60808301525092915050565b6000815190506200051d81620007b7565b92915050565b6000806000606084860312156200053957600080fd5b600084015167ffffffffffffffff8111156200055457600080fd5b620005628682870162000445565b9350506020620005758682870162000401565b92505060406200058886828701620003bd565b9150509250925092565b60006200059e620005b1565b9050620005ac8282620006de565b919050565b6000604051905090565b600067ffffffffffffffff821115620005d957620005d862000743565b5b602082029050602081019050919050565b600067ffffffffffffffff82111562000608576200060762000743565b5b620006138262000772565b9050602081019050919050565b60006200062d8262000648565b9050919050565b6000620006418262000620565b9050919050565b600073ffffffffffffffffffffffffffffffffffffffff82169050919050565b6000819050919050565b60005b838110156200069257808201518184015260208101905062000675565b83811115620006a2576000848401525b50505050565b60006002820490506001821680620006c157607f821691505b60208210811415620006d857620006d762000714565b5b50919050565b620006e98262000772565b810181811067ffffffffffffffff821117156200070b576200070a62000743565b5b80604052505050565b7f4e487b7100000000000000000000000000000000000000000000000000000000600052602260045260246000fd5b7f4e487b7100000000000000000000000000000000000000000000000000000000600052604160045260246000fd5b6000601f19601f8301169050919050565b6200078e8162000620565b81146200079a57600080fd5b50565b620007a88162000634565b8114620007b457600080fd5b50565b620007c28162000668565b8114620007ce57600080fd5b50565b61695180620007e16000396000f3fe60806040523480156200001157600080fd5b5060043610620001485760003560e01c80636352211e11620000bd578063a22cb465116200007b578063a22cb4651462000396578063b88d4fde14620003b6578063c87b56dd14620003d6578063ce1e4626146200040c578063e985e9c5146200042e5762000148565b80636352211e14620002c657806370a0823114620002fc57806394555d1a146200033257806395d89b4114620003525780639ca0cf2a14620003745762000148565b806323b872dd116200010b57806323b872dd14620002205780632f13b60c146200024057806338d52e0f146200026257806342842e0e14620002845780635089f79614620002a45762000148565b806301ffc9a7146200014d5780630505c8c9146200018357806306fdde0314620001a8578063081812fc14620001ca578063095ea7b31462000200575b600080fd5b6200016b600480360381019062000165919062001e7a565b62000464565b6040516200017a919062002577565b60405180910390f35b6200018d6200054a565b6040516200019f9493929190620025d5565b60405180910390f35b620001b2620005f8565b604051620001c19190620025b1565b60405180910390f35b620001e86004803603810190620001e2919062001ed2565b62000692565b604051620001f79190620024c9565b60405180910390f35b6200021e600480360381019062000218919062001e0d565b620006da565b005b6200023e600480360381019062000238919062001cf1565b62000803565b005b6200024a6200086c565b60405162000259919062002577565b60405180910390f35b6200026c6200088e565b6040516200027b919062002594565b60405180910390f35b620002a260048036038101906200029c919062001cf1565b620008b4565b005b620002ae620008d6565b604051620002bd9190620024c9565b60405180910390f35b620002e46004803603810190620002de919062001ed2565b620008fc565b604051620002f39190620024c9565b60405180910390f35b6200031a600480360381019062000314919062001c84565b620009b1565b604051620003299190620027e3565b60405180910390f35b6200035060048036038101906200034a919062001c84565b62000a6c565b005b6200035c62000c70565b6040516200036b9190620025b1565b60405180910390f35b6200037e62000d0a565b6040516200038d9190620027e3565b60405180910390f35b620003b46004803603810190620003ae919062001dcc565b62000dc2565b005b620003d46004803603810190620003ce919062001d47565b62000ddc565b005b620003f46004803603810190620003ee919062001ed2565b62000e47565b604051620004039190620025b1565b60405180910390f35b6200041662000eb9565b6040516200042591906200275b565b60405180910390f35b6200044c600480360381019062000446919062001cb0565b6200101d565b6040516200045b919062002577565b60405180910390f35b60007f80ac58cd000000000000000000000000000000000000000000000000000000007bffffffffffffffffffffffffffffffffffffffffffffffffffffffff1916827bffffffffffffffffffffffffffffffffffffffffffffffffffffffff191614806200053057507f5b5e139f000000000000000000000000000000000000000000000000000000007bffffffffffffffffffffffffffffffffffffffffffffffffffffffff1916827bffffffffffffffffffffffffffffffffffffffffffffffffffffffff1916145b806200054357506200054282620010b1565b5b9050919050565b60068060010180546200055d9062002b0b565b80601f01602080910402602001604051908101604052809291908181526020018280546200058b9062002b0b565b8015620005dc5780601f10620005b057610100808354040283529160200191620005dc565b820191906000526020600020905b815481529060010190602001808311620005be57829003601f168201915b5050505050908060020154908060030154908060040154905084565b606060008054620006099062002b0b565b80601f0160208091040260200160405190810160405280929190818152602001828054620006379062002b0b565b8015620006885780601f106200065c5761010080835404028352916020019162000688565b820191906000526020600020905b8154815290600101906020018083116200066a57829003601f168201915b5050505050905090565b60006200069f826200111b565b6004600083815260200190815260200160002060009054906101000a900473ffffffffffffffffffffffffffffffffffffffff169050919050565b6000620006e782620008fc565b90508073ffffffffffffffffffffffffffffffffffffffff168373ffffffffffffffffffffffffffffffffffffffff1614156200075b576040517f08c379a0000000000000000000000000000000000000000000000000000000008152600401620007529062002717565b60405180910390fd5b8073ffffffffffffffffffffffffffffffffffffffff166200077c6200116b565b73ffffffffffffffffffffffffffffffffffffffff161480620007b05750620007af81620007a96200116b565b6200101d565b5b620007f2576040517f08c379a0000000000000000000000000000000000000000000000000000000008152600401620007e990620026d3565b60405180910390fd5b620007fe838362001173565b505050565b62000818620008116200116b565b826200122e565b6200085a576040517f08c379a0000000000000000000000000000000000000000000000000000000008152600401620008519062002739565b60405180910390fd5b62000867838383620012cb565b505050565b60004260066004015411156200088657600190506200088b565b600090505b90565b600b60009054906101000a900473ffffffffffffffffffffffffffffffffffffffff1681565b620008d18383836040518060200160405280600081525062000ddc565b505050565b600c60009054906101000a900473ffffffffffffffffffffffffffffffffffffffff1681565b6000806002600084815260200190815260200160002060009054906101000a900473ffffffffffffffffffffffffffffffffffffffff169050600073ffffffffffffffffffffffffffffffffffffffff168173ffffffffffffffffffffffffffffffffffffffff161415620009a8576040517f08c379a00000000000000000000000000000000000000000000000000000000081526004016200099f90620026f5565b60405180910390fd5b80915050919050565b60008073ffffffffffffffffffffffffffffffffffffffff168273ffffffffffffffffffffffffffffffffffffffff16141562000a25576040517f08c379a000000000000000000000000000000000000000000000000000000000815260040162000a1c90620026b1565b60405180910390fd5b600360008373ffffffffffffffffffffffffffffffffffffffff1673ffffffffffffffffffffffffffffffffffffffff168152602001908152602001600020549050919050565b6006600001819080600181540180825580915050600190039060005260206000200160009091909190916101000a81548173ffffffffffffffffffffffffffffffffffffffff021916908373ffffffffffffffffffffffffffffffffffffffff160217905550600b60009054906101000a900473ffffffffffffffffffffffffffffffffffffffff1673ffffffffffffffffffffffffffffffffffffffff166323b872dd33306006600201546040518463ffffffff1660e01b815260040162000b3893929190620024e6565b602060405180830381600087803b15801562000b5357600080fd5b505af115801562000b68573d6000803e3d6000fd5b505050506040513d601f19601f8201168201806040525081019062000b8e919062001e4e565b506000600d600081548092919062000ba69062002bb3565b9190505590506006600b60009054906101000a900473ffffffffffffffffffffffffffffffffffffffff1683600c60009054906101000a900473ffffffffffffffffffffffffffffffffffffffff168460405162000c049062001b34565b62000c149594939291906200277f565b604051809103906000f08015801562000c31573d6000803e3d6000fd5b50507fcd7a47fc7c2cb24af3043e88d80d655a387c07709da07b87d762ad2c7e97853c8260405162000c649190620024c9565b60405180910390a15050565b60606001805462000c819062002b0b565b80601f016020809104026020016040519081016040528092919081815260200182805462000caf9062002b0b565b801562000d005780601f1062000cd45761010080835404028352916020019162000d00565b820191906000526020600020905b81548152906001019060200180831162000ce257829003601f168201915b5050505050905090565b6000600b60009054906101000a900473ffffffffffffffffffffffffffffffffffffffff1673ffffffffffffffffffffffffffffffffffffffff166370a08231306040518263ffffffff1660e01b815260040162000d699190620024c9565b60206040518083038186803b15801562000d8257600080fd5b505afa15801562000d97573d6000803e3d6000fd5b505050506040513d601f19601f8201168201806040525081019062000dbd919062001efe565b905090565b62000dd862000dd06200116b565b838362001544565b5050565b62000df162000dea6200116b565b836200122e565b62000e33576040517f08c379a000000000000000000000000000000000000000000000000000000000815260040162000e2a9062002739565b60405180910390fd5b62000e4184848484620016b6565b50505050565b606062000e54826200111b565b600062000e6062001719565b9050600081511162000e82576040518060200160405280600081525062000eb1565b8062000e8e8462001730565b60405160200162000ea1929190620024a1565b6040516020818303038152906040525b915050919050565b62000ec362001b42565b60066040518060a00160405290816000820180548060200260200160405190810160405280929190818152602001828054801562000f5757602002820191906000526020600020905b8160009054906101000a900473ffffffffffffffffffffffffffffffffffffffff1673ffffffffffffffffffffffffffffffffffffffff168152602001906001019080831162000f0c575b5050505050815260200160018201805462000f729062002b0b565b80601f016020809104026020016040519081016040528092919081815260200182805462000fa09062002b0b565b801562000ff15780601f1062000fc55761010080835404028352916020019162000ff1565b820191906000526020600020905b81548152906001019060200180831162000fd357829003601f168201915b505050505081526020016002820154815260200160038201548152602001600482015481525050905090565b6000600560008473ffffffffffffffffffffffffffffffffffffffff1673ffffffffffffffffffffffffffffffffffffffff16815260200190815260200160002060008373ffffffffffffffffffffffffffffffffffffffff1673ffffffffffffffffffffffffffffffffffffffff16815260200190815260200160002060009054906101000a900460ff16905092915050565b60007f01ffc9a7000000000000000000000000000000000000000000000000000000007bffffffffffffffffffffffffffffffffffffffffffffffffffffffff1916827bffffffffffffffffffffffffffffffffffffffffffffffffffffffff1916149050919050565b6200112681620018f2565b62001168576040517f08c379a00000000000000000000000000000000000000000000000000000000081526004016200115f90620026f5565b60405180910390fd5b50565b600033905090565b816004600083815260200190815260200160002060006101000a81548173ffffffffffffffffffffffffffffffffffffffff021916908373ffffffffffffffffffffffffffffffffffffffff160217905550808273ffffffffffffffffffffffffffffffffffffffff16620011e883620008fc565b73ffffffffffffffffffffffffffffffffffffffff167f8c5be1e5ebec7d5bd14f71427d1e84f3dd0314c0f7b2291e5b200ac8c7c3b92560405160405180910390a45050565b6000806200123c83620008fc565b90508073ffffffffffffffffffffffffffffffffffffffff168473ffffffffffffffffffffffffffffffffffffffff1614806200128157506200128081856200101d565b5b80620012c257508373ffffffffffffffffffffffffffffffffffffffff16620012aa8462000692565b73ffffffffffffffffffffffffffffffffffffffff16145b91505092915050565b8273ffffffffffffffffffffffffffffffffffffffff16620012ed82620008fc565b73ffffffffffffffffffffffffffffffffffffffff161462001346576040517f08c379a00000000000000000000000000000000000000000000000000000000081526004016200133d906200264b565b60405180910390fd5b600073ffffffffffffffffffffffffffffffffffffffff168273ffffffffffffffffffffffffffffffffffffffff161415620013b9576040517f08c379a0000000000000000000000000000000000000000000000000000000008152600401620013b0906200266d565b60405180910390fd5b620013c68383836200195e565b620013d360008262001173565b6001600360008573ffffffffffffffffffffffffffffffffffffffff1673ffffffffffffffffffffffffffffffffffffffff1681526020019081526020016000206000828254620014259190620029c3565b925050819055506001600360008473ffffffffffffffffffffffffffffffffffffffff1673ffffffffffffffffffffffffffffffffffffffff16815260200190815260200160002060008282546200147e91906200292e565b92505081905550816002600083815260200190815260200160002060006101000a81548173ffffffffffffffffffffffffffffffffffffffff021916908373ffffffffffffffffffffffffffffffffffffffff160217905550808273ffffffffffffffffffffffffffffffffffffffff168473ffffffffffffffffffffffffffffffffffffffff167fddf252ad1be2c89b69c2b068fc378daa952ba7f163c4a11628f55a4df523b3ef60405160405180910390a46200153f83838362001963565b505050565b8173ffffffffffffffffffffffffffffffffffffffff168373ffffffffffffffffffffffffffffffffffffffff161415620015b6576040517f08c379a0000000000000000000000000000000000000000000000000000000008152600401620015ad906200268f565b60405180910390fd5b80600560008573ffffffffffffffffffffffffffffffffffffffff1673ffffffffffffffffffffffffffffffffffffffff16815260200190815260200160002060008473ffffffffffffffffffffffffffffffffffffffff1673ffffffffffffffffffffffffffffffffffffffff16815260200190815260200160002060006101000a81548160ff0219169083151502179055508173ffffffffffffffffffffffffffffffffffffffff168373ffffffffffffffffffffffffffffffffffffffff167f17307eab39ab6107e8899845ad3d59bd9653f200f220920489ca2b5937696c3183604051620016a9919062002577565b60405180910390a3505050565b620016c3848484620012cb565b620016d18484848462001968565b62001713576040517f08c379a00000000000000000000000000000000000000000000000000000000081526004016200170a9062002629565b60405180910390fd5b50505050565b606060405180602001604052806000815250905090565b606060008214156200177a576040518060400160405280600181526020017f30000000000000000000000000000000000000000000000000000000000000008152509050620018ed565b600082905060005b60008214620017b2578080620017989062002bb3565b915050600a82620017aa91906200298b565b915062001782565b60008167ffffffffffffffff811115620017f5577f4e487b7100000000000000000000000000000000000000000000000000000000600052604160045260246000fd5b6040519080825280601f01601f191660200182016040528015620018285781602001600182028036833780820191505090505b5090505b60008514620018e657600182620018449190620029c3565b9150600a8562001855919062002c01565b60306200186391906200292e565b60f81b818381518110620018a0577f4e487b7100000000000000000000000000000000000000000000000000000000600052603260045260246000fd5b60200101907effffffffffffffffffffffffffffffffffffffffffffffffffffffffffffff1916908160001a905350600a85620018de91906200298b565b94506200182c565b8093505050505b919050565b60008073ffffffffffffffffffffffffffffffffffffffff166002600084815260200190815260200160002060009054906101000a900473ffffffffffffffffffffffffffffffffffffffff1673ffffffffffffffffffffffffffffffffffffffff1614159050919050565b505050565b505050565b60006200198b8473ffffffffffffffffffffffffffffffffffffffff1662001b11565b1562001b04578373ffffffffffffffffffffffffffffffffffffffff1663150b7a02620019b76200116b565b8786866040518563ffffffff1660e01b8152600401620019db949392919062002523565b602060405180830381600087803b158015620019f657600080fd5b505af192505050801562001a2a57506040513d601f19601f8201168201806040525081019062001a27919062001ea6565b60015b62001ab3573d806000811462001a5d576040519150601f19603f3d011682016040523d82523d6000602084013e62001a62565b606091505b5060008151141562001aab576040517f08c379a000000000000000000000000000000000000000000000000000000000815260040162001aa29062002629565b60405180910390fd5b805181602001fd5b63150b7a0260e01b7bffffffffffffffffffffffffffffffffffffffffffffffffffffffff1916817bffffffffffffffffffffffffffffffffffffffffffffffffffffffff19161491505062001b09565b600190505b949350505050565b6000808273ffffffffffffffffffffffffffffffffffffffff163b119050919050565b613910806200300c83390190565b6040518060a0016040528060608152602001606081526020016000815260200160008152602001600081525090565b600062001b8862001b828462002829565b62002800565b90508281526020810184848401111562001ba157600080fd5b62001bae84828562002ac6565b509392505050565b60008135905062001bc78162002fa3565b92915050565b60008135905062001bde8162002fbd565b92915050565b60008151905062001bf58162002fbd565b92915050565b60008135905062001c0c8162002fd7565b92915050565b60008151905062001c238162002fd7565b92915050565b600082601f83011262001c3b57600080fd5b813562001c4d84826020860162001b71565b91505092915050565b60008135905062001c678162002ff1565b92915050565b60008151905062001c7e8162002ff1565b92915050565b60006020828403121562001c9757600080fd5b600062001ca78482850162001bb6565b91505092915050565b6000806040838503121562001cc457600080fd5b600062001cd48582860162001bb6565b925050602062001ce78582860162001bb6565b9150509250929050565b60008060006060848603121562001d0757600080fd5b600062001d178682870162001bb6565b935050602062001d2a8682870162001bb6565b925050604062001d3d8682870162001c56565b9150509250925092565b6000806000806080858703121562001d5e57600080fd5b600062001d6e8782880162001bb6565b945050602062001d818782880162001bb6565b935050604062001d948782880162001c56565b925050606085013567ffffffffffffffff81111562001db257600080fd5b62001dc08782880162001c29565b91505092959194509250565b6000806040838503121562001de057600080fd5b600062001df08582860162001bb6565b925050602062001e038582860162001bcd565b9150509250929050565b6000806040838503121562001e2157600080fd5b600062001e318582860162001bb6565b925050602062001e448582860162001c56565b9150509250929050565b60006020828403121562001e6157600080fd5b600062001e718482850162001be4565b91505092915050565b60006020828403121562001e8d57600080fd5b600062001e9d8482850162001bfb565b91505092915050565b60006020828403121562001eb957600080fd5b600062001ec98482850162001c12565b91505092915050565b60006020828403121562001ee557600080fd5b600062001ef58482850162001c56565b91505092915050565b60006020828403121562001f1157600080fd5b600062001f218482850162001c6d565b91505092915050565b600062001f38838362001f44565b60208301905092915050565b62001f4f8162002a28565b82525050565b62001f608162002a28565b82525050565b600062001f738262002899565b62001f7f8185620028df565b935062001f8c836200285f565b8060005b8381101562001fc357815162001fa7888262001f2a565b975062001fb483620028c5565b92505060018101905062001f90565b5085935050505092915050565b600062001fdd82620028a4565b62001fe98185620028df565b935062001ff6836200286f565b8060005b8381101562002036576200200e8262002cf5565b6200201a888262001f2a565b97506200202783620028d2565b92505060018101905062001ffa565b5085935050505092915050565b6200204e8162002a3c565b82525050565b60006200206182620028af565b6200206d8185620028f0565b93506200207f81856020860162002ad5565b6200208a8162002d0a565b840191505092915050565b620020a08162002a9e565b82525050565b6000620020b382620028ba565b620020bf818562002901565b9350620020d181856020860162002ad5565b620020dc8162002d0a565b840191505092915050565b6000620020f482620028ba565b62002100818562002912565b93506200211281856020860162002ad5565b6200211d8162002d0a565b840191505092915050565b60006200213582620028ba565b62002141818562002923565b93506200215381856020860162002ad5565b80840191505092915050565b600081546200216e8162002b0b565b6200217a818662002901565b94506001821660008114620021985760018114620021ab57620021e2565b60ff1983168652602086019350620021e2565b620021b68562002884565b60005b83811015620021da57815481890152600182019150602081019050620021b9565b808801955050505b50505092915050565b6000620021fa60328362002912565b9150620022078262002d28565b604082019050919050565b60006200222160258362002912565b91506200222e8262002d77565b604082019050919050565b60006200224860248362002912565b9150620022558262002dc6565b604082019050919050565b60006200226f60198362002912565b91506200227c8262002e15565b602082019050919050565b60006200229660298362002912565b9150620022a38262002e3e565b604082019050919050565b6000620022bd603e8362002912565b9150620022ca8262002e8d565b604082019050919050565b6000620022e460188362002912565b9150620022f18262002edc565b602082019050919050565b60006200230b60218362002912565b9150620023188262002f05565b604082019050919050565b600062002332602e8362002912565b91506200233f8262002f54565b604082019050919050565b600060a083016000830151848203600086015262002369828262001f66565b91505060208301518482036020860152620023858282620020a6565b91505060408301516200239c60408601826200247f565b506060830151620023b160608601826200247f565b506080830151620023c660808601826200247f565b508091505092915050565b600060a0830160008084018583036000870152620023f0838262001fd0565b9250506001840185830360208701526200240b83826200215f565b92505060028401549050620024208162002b5f565b6200242f60408701826200247f565b5060038401549050620024428162002b5f565b6200245160608701826200247f565b5060048401549050620024648162002b5f565b6200247360808701826200247f565b50819250505092915050565b6200248a8162002a94565b82525050565b6200249b8162002a94565b82525050565b6000620024af828562002128565b9150620024bd828462002128565b91508190509392505050565b6000602082019050620024e0600083018462001f55565b92915050565b6000606082019050620024fd600083018662001f55565b6200250c602083018562001f55565b6200251b604083018462002490565b949350505050565b60006080820190506200253a600083018762001f55565b62002549602083018662001f55565b62002558604083018562002490565b81810360608301526200256c818462002054565b905095945050505050565b60006020820190506200258e600083018462002043565b92915050565b6000602082019050620025ab600083018462002095565b92915050565b60006020820190508181036000830152620025cd8184620020e7565b905092915050565b60006080820190508181036000830152620025f18187620020e7565b905062002602602083018662002490565b62002611604083018562002490565b62002620606083018462002490565b95945050505050565b600060208201905081810360008301526200264481620021eb565b9050919050565b60006020820190508181036000830152620026668162002212565b9050919050565b60006020820190508181036000830152620026888162002239565b9050919050565b60006020820190508181036000830152620026aa8162002260565b9050919050565b60006020820190508181036000830152620026cc8162002287565b9050919050565b60006020820190508181036000830152620026ee81620022ae565b9050919050565b600060208201905081810360008301526200271081620022d5565b9050919050565b600060208201905081810360008301526200273281620022fc565b9050919050565b60006020820190508181036000830152620027548162002323565b9050919050565b600060208201905081810360008301526200277781846200234a565b905092915050565b600060a08201905081810360008301526200279b8188620023d1565b9050620027ac602083018762002095565b620027bb604083018662001f55565b620027ca606083018562001f55565b620027d9608083018462002490565b9695505050505050565b6000602082019050620027fa600083018462002490565b92915050565b60006200280c6200281f565b90506200281a828262002b7d565b919050565b6000604051905090565b600067ffffffffffffffff82111562002847576200284662002cc6565b5b620028528262002d0a565b9050602081019050919050565b6000819050602082019050919050565b60008190508160005260206000209050919050565b60008190508160005260206000209050919050565b600081519050919050565b600081549050919050565b600081519050919050565b600081519050919050565b6000602082019050919050565b6000600182019050919050565b600082825260208201905092915050565b600082825260208201905092915050565b600082825260208201905092915050565b600082825260208201905092915050565b600081905092915050565b60006200293b8262002a94565b9150620029488362002a94565b9250827fffffffffffffffffffffffffffffffffffffffffffffffffffffffffffffffff0382111562002980576200297f62002c39565b5b828201905092915050565b6000620029988262002a94565b9150620029a58362002a94565b925082620029b857620029b762002c68565b5b828204905092915050565b6000620029d08262002a94565b9150620029dd8362002a94565b925082821015620029f357620029f262002c39565b5b828203905092915050565b600073ffffffffffffffffffffffffffffffffffffffff82169050919050565b6000819050919050565b600062002a358262002a74565b9050919050565b60008115159050919050565b60007fffffffff0000000000000000000000000000000000000000000000000000000082169050919050565b600073ffffffffffffffffffffffffffffffffffffffff82169050919050565b6000819050919050565b600062002aab8262002ab2565b9050919050565b600062002abf8262002a74565b9050919050565b82818337600083830152505050565b60005b8381101562002af557808201518184015260208101905062002ad8565b8381111562002b05576000848401525b50505050565b6000600282049050600182168062002b2457607f821691505b6020821081141562002b3b5762002b3a62002c97565b5b50919050565b600062002b5862002b528362002d1b565b620029fe565b9050919050565b600062002b7662002b708362002d1b565b62002a1e565b9050919050565b62002b888262002d0a565b810181811067ffffffffffffffff8211171562002baa5762002ba962002cc6565b5b80604052505050565b600062002bc08262002a94565b91507fffffffffffffffffffffffffffffffffffffffffffffffffffffffffffffffff82141562002bf65762002bf562002c39565b5b600182019050919050565b600062002c0e8262002a94565b915062002c1b8362002a94565b92508262002c2e5762002c2d62002c68565b5b828206905092915050565b7f4e487b7100000000000000000000000000000000000000000000000000000000600052601160045260246000fd5b7f4e487b7100000000000000000000000000000000000000000000000000000000600052601260045260246000fd5b7f4e487b7100000000000000000000000000000000000000000000000000000000600052602260045260246000fd5b7f4e487b7100000000000000000000000000000000000000000000000000000000600052604160045260246000fd5b600062002d03825462002b41565b9050919050565b6000601f19601f8301169050919050565b60008160001c9050919050565b7f4552433732313a207472616e7366657220746f206e6f6e20455243373231526560008201527f63656976657220696d706c656d656e7465720000000000000000000000000000602082015250565b7f4552433732313a207472616e736665722066726f6d20696e636f72726563742060008201527f6f776e6572000000000000000000000000000000000000000000000000000000602082015250565b7f4552433732313a207472616e7366657220746f20746865207a65726f2061646460008201527f7265737300000000000000000000000000000000000000000000000000000000602082015250565b7f4552433732313a20617070726f766520746f2063616c6c657200000000000000600082015250565b7f4552433732313a2061646472657373207a65726f206973206e6f74206120766160008201527f6c6964206f776e65720000000000000000000000000000000000000000000000602082015250565b7f4552433732313a20617070726f76652063616c6c6572206973206e6f7420746f60008201527f6b656e206f776e6572206e6f7220617070726f76656420666f7220616c6c0000602082015250565b7f4552433732313a20696e76616c696420746f6b656e2049440000000000000000600082015250565b7f4552433732313a20617070726f76616c20746f2063757272656e74206f776e6560008201527f7200000000000000000000000000000000000000000000000000000000000000602082015250565b7f4552433732313a2063616c6c6572206973206e6f7420746f6b656e206f776e6560008201527f72206e6f7220617070726f766564000000000000000000000000000000000000602082015250565b62002fae8162002a28565b811462002fba57600080fd5b50565b62002fc88162002a3c565b811462002fd457600080fd5b50565b62002fe28162002a48565b811462002fee57600080fd5b50565b62002ffc8162002a94565b81146200300857600080fd5b5056fe60806040523480156200001157600080fd5b506040516200391038038062003910833981810160405281019062000037919062000895565b6040518060400160405280601281526020017f506f6c6963792052656365706974204e465400000000000000000000000000008152506040518060400160405280600381526020017f50524e00000000000000000000000000000000000000000000000000000000008152508160009080519060200190620000bb92919062000536565b508060019080519060200190620000d492919062000536565b505050620000f7620000eb620001f860201b60201c565b6200020060201b60201c565b846007600082015181600001908051906020019062000118929190620005c7565b5060208201518160010190805190602001906200013792919062000536565b5060408201518160020155606082015181600301556080820151816004015590505081600c60006101000a81548173ffffffffffffffffffffffffffffffffffffffff021916908373ffffffffffffffffffffffffffffffffffffffff16021790555082600d60006101000a81548173ffffffffffffffffffffffffffffffffffffffff021916908373ffffffffffffffffffffffffffffffffffffffff160217905550620001ed8382620002c660201b60201c565b505050505062000cf0565b600033905090565b6000600660009054906101000a900473ffffffffffffffffffffffffffffffffffffffff16905081600660006101000a81548173ffffffffffffffffffffffffffffffffffffffff021916908373ffffffffffffffffffffffffffffffffffffffff1602179055508173ffffffffffffffffffffffffffffffffffffffff168173ffffffffffffffffffffffffffffffffffffffff167f8be0079c531659141344cd1fd0a4f28419497f9722a3daafe3b4186f6b6457e060405160405180910390a35050565b600073ffffffffffffffffffffffffffffffffffffffff168273ffffffffffffffffffffffffffffffffffffffff16141562000339576040517f08c379a00000000000000000000000000000000000000000000000000000000081526004016200033090620009a0565b60405180910390fd5b6200034a81620004c060201b60201c565b156200038d576040517f08c379a000000000000000000000000000000000000000000000000000000000815260040162000384906200097e565b60405180910390fd5b620003a1600083836200052c60201b60201c565b6001600360008473ffffffffffffffffffffffffffffffffffffffff1673ffffffffffffffffffffffffffffffffffffffff1681526020019081526020016000206000828254620003f3919062000a61565b92505081905550816002600083815260200190815260200160002060006101000a81548173ffffffffffffffffffffffffffffffffffffffff021916908373ffffffffffffffffffffffffffffffffffffffff160217905550808273ffffffffffffffffffffffffffffffffffffffff16600073ffffffffffffffffffffffffffffffffffffffff167fddf252ad1be2c89b69c2b068fc378daa952ba7f163c4a11628f55a4df523b3ef60405160405180910390a4620004bc600083836200053160201b60201c565b5050565b60008073ffffffffffffffffffffffffffffffffffffffff166002600084815260200190815260200160002060009054906101000a900473ffffffffffffffffffffffffffffffffffffffff1673ffffffffffffffffffffffffffffffffffffffff1614159050919050565b505050565b505050565b828054620005449062000b46565b90600052602060002090601f016020900481019282620005685760008555620005b4565b82601f106200058357805160ff1916838001178555620005b4565b82800160010185558215620005b4579182015b82811115620005b357825182559160200191906001019062000596565b5b509050620005c3919062000656565b5090565b82805482825590600052602060002090810192821562000643579160200282015b82811115620006425782518260006101000a81548173ffffffffffffffffffffffffffffffffffffffff021916908373ffffffffffffffffffffffffffffffffffffffff16021790555091602001919060010190620005e8565b5b50905062000652919062000656565b5090565b5b808211156200067157600081600090555060010162000657565b5090565b60006200068c6200068684620009eb565b620009c2565b90508083825260208201905082856020860282011115620006ac57600080fd5b60005b85811015620006e05781620006c588826200072f565b845260208401935060208301925050600181019050620006af565b5050509392505050565b600062000701620006fb8462000a1a565b620009c2565b9050828152602081018484840111156200071a57600080fd5b6200072784828562000b10565b509392505050565b600081519050620007408162000ca2565b92915050565b600082601f8301126200075857600080fd5b81516200076a84826020860162000675565b91505092915050565b600081519050620007848162000cbc565b92915050565b600082601f8301126200079c57600080fd5b8151620007ae848260208601620006ea565b91505092915050565b600060a08284031215620007ca57600080fd5b620007d660a0620009c2565b9050600082015167ffffffffffffffff811115620007f357600080fd5b620008018482850162000746565b600083015250602082015167ffffffffffffffff8111156200082257600080fd5b62000830848285016200078a565b602083015250604062000846848285016200087e565b60408301525060606200085c848285016200087e565b606083015250608062000872848285016200087e565b60808301525092915050565b6000815190506200088f8162000cd6565b92915050565b600080600080600060a08688031215620008ae57600080fd5b600086015167ffffffffffffffff811115620008c957600080fd5b620008d788828901620007b7565b9550506020620008ea8882890162000773565b9450506040620008fd888289016200072f565b935050606062000910888289016200072f565b925050608062000923888289016200087e565b9150509295509295909350565b60006200093f601c8362000a50565b91506200094c8262000c50565b602082019050919050565b60006200096660208362000a50565b9150620009738262000c79565b602082019050919050565b60006020820190508181036000830152620009998162000930565b9050919050565b60006020820190508181036000830152620009bb8162000957565b9050919050565b6000620009ce620009e1565b9050620009dc828262000b7c565b919050565b6000604051905090565b600067ffffffffffffffff82111562000a095762000a0862000c10565b5b602082029050602081019050919050565b600067ffffffffffffffff82111562000a385762000a3762000c10565b5b62000a438262000c3f565b9050602081019050919050565b600082825260208201905092915050565b600062000a6e8262000b06565b915062000a7b8362000b06565b9250827fffffffffffffffffffffffffffffffffffffffffffffffffffffffffffffffff0382111562000ab35762000ab262000bb2565b5b828201905092915050565b600062000acb8262000ae6565b9050919050565b600062000adf8262000abe565b9050919050565b600073ffffffffffffffffffffffffffffffffffffffff82169050919050565b6000819050919050565b60005b8381101562000b3057808201518184015260208101905062000b13565b8381111562000b40576000848401525b50505050565b6000600282049050600182168062000b5f57607f821691505b6020821081141562000b765762000b7562000be1565b5b50919050565b62000b878262000c3f565b810181811067ffffffffffffffff8211171562000ba95762000ba862000c10565b5b80604052505050565b7f4e487b7100000000000000000000000000000000000000000000000000000000600052601160045260246000fd5b7f4e487b7100000000000000000000000000000000000000000000000000000000600052602260045260246000fd5b7f4e487b7100000000000000000000000000000000000000000000000000000000600052604160045260246000fd5b6000601f19601f8301169050919050565b7f4552433732313a20746f6b656e20616c7265616479206d696e74656400000000600082015250565b7f4552433732313a206d696e7420746f20746865207a65726f2061646472657373600082015250565b62000cad8162000abe565b811462000cb957600080fd5b50565b62000cc78162000ad2565b811462000cd357600080fd5b50565b62000ce18162000b06565b811462000ced57600080fd5b50565b612c108062000d006000396000f3fe608060405234801561001057600080fd5b50600436106101425760003560e01c8063715018a6116100b8578063b5545a3c1161007c578063b5545a3c14610356578063b88d4fde14610360578063c87b56dd1461037c578063ce1e4626146103ac578063e985e9c5146103ca578063f2fde38b146103fa57610142565b8063715018a6146102d65780638da5cb5b146102e057806395d89b41146102fe578063a22cb4651461031c578063aeddc49f1461033857610142565b806320e036301161010a57806320e036301461020257806323b872dd1461022057806342842e0e1461023c5780635089f796146102585780636352211e1461027657806370a08231146102a657610142565b806301ffc9a7146101475780630505c8c91461017757806306fdde0314610198578063081812fc146101b6578063095ea7b3146101e6575b600080fd5b610161600480360381019061015c9190611d01565b610416565b60405161016e9190612222565b60405180910390f35b61017f6104f8565b60405161018f949392919061225f565b60405180910390f35b6101a061059e565b6040516101ad919061223d565b60405180910390f35b6101d060048036038101906101cb9190611d53565b610630565b6040516101dd91906121bb565b60405180910390f35b61020060048036038101906101fb9190611cc5565b610676565b005b61020a61078e565b60405161021791906121bb565b60405180910390f35b61023a60048036038101906102359190611bbf565b6107b4565b005b61025660048036038101906102519190611bbf565b610814565b005b610260610834565b60405161026d91906121bb565b60405180910390f35b610290600480360381019061028b9190611d53565b61085a565b60405161029d91906121bb565b60405180910390f35b6102c060048036038101906102bb9190611b5a565b61090c565b6040516102cd919061245d565b60405180910390f35b6102de6109c4565b005b6102e86109d8565b6040516102f591906121bb565b60405180910390f35b610306610a02565b604051610313919061223d565b60405180910390f35b61033660048036038101906103319190611c89565b610a94565b005b610340610aaa565b60405161034d91906121bb565b60405180910390f35b61035e610ad4565b005b61037a60048036038101906103759190611c0e565b610bad565b005b61039660048036038101906103919190611d53565b610c0f565b6040516103a3919061223d565b60405180910390f35b6103b4610c77565b6040516103c1919061243b565b60405180910390f35b6103e460048036038101906103df9190611b83565b610dcf565b6040516103f19190612222565b60405180910390f35b610414600480360381019061040f9190611b5a565b610e63565b005b60007f80ac58cd000000000000000000000000000000000000000000000000000000007bffffffffffffffffffffffffffffffffffffffffffffffffffffffff1916827bffffffffffffffffffffffffffffffffffffffffffffffffffffffff191614806104e157507f5b5e139f000000000000000000000000000000000000000000000000000000007bffffffffffffffffffffffffffffffffffffffffffffffffffffffff1916827bffffffffffffffffffffffffffffffffffffffffffffffffffffffff1916145b806104f157506104f082610ee7565b5b9050919050565b6007806001018054610509906126e1565b80601f0160208091040260200160405190810160405280929190818152602001828054610535906126e1565b80156105825780601f1061055757610100808354040283529160200191610582565b820191906000526020600020905b81548152906001019060200180831161056557829003601f168201915b5050505050908060020154908060030154908060040154905084565b6060600080546105ad906126e1565b80601f01602080910402602001604051908101604052809291908181526020018280546105d9906126e1565b80156106265780601f106105fb57610100808354040283529160200191610626565b820191906000526020600020905b81548152906001019060200180831161060957829003601f168201915b5050505050905090565b600061063b82610f51565b6004600083815260200190815260200160002060009054906101000a900473ffffffffffffffffffffffffffffffffffffffff169050919050565b60006106818261085a565b90508073ffffffffffffffffffffffffffffffffffffffff168373ffffffffffffffffffffffffffffffffffffffff1614156106f2576040517f08c379a00000000000000000000000000000000000000000000000000000000081526004016106e9906123fb565b60405180910390fd5b8073ffffffffffffffffffffffffffffffffffffffff16610711610f9c565b73ffffffffffffffffffffffffffffffffffffffff161480610740575061073f8161073a610f9c565b610dcf565b5b61077f576040517f08c379a00000000000000000000000000000000000000000000000000000000081526004016107769061239b565b60405180910390fd5b6107898383610fa4565b505050565b600d60009054906101000a900473ffffffffffffffffffffffffffffffffffffffff1681565b6107c56107bf610f9c565b8261105d565b610804576040517f08c379a00000000000000000000000000000000000000000000000000000000081526004016107fb9061241b565b60405180910390fd5b61080f8383836110f2565b505050565b61082f83838360405180602001604052806000815250610bad565b505050565b600c60009054906101000a900473ffffffffffffffffffffffffffffffffffffffff1681565b6000806002600084815260200190815260200160002060009054906101000a900473ffffffffffffffffffffffffffffffffffffffff169050600073ffffffffffffffffffffffffffffffffffffffff168173ffffffffffffffffffffffffffffffffffffffff161415610903576040517f08c379a00000000000000000000000000000000000000000000000000000000081526004016108fa906123db565b60405180910390fd5b80915050919050565b60008073ffffffffffffffffffffffffffffffffffffffff168273ffffffffffffffffffffffffffffffffffffffff16141561097d576040517f08c379a00000000000000000000000000000000000000000000000000000000081526004016109749061237b565b60405180910390fd5b600360008373ffffffffffffffffffffffffffffffffffffffff1673ffffffffffffffffffffffffffffffffffffffff168152602001908152602001600020549050919050565b6109cc611359565b6109d660006113d7565b565b6000600660009054906101000a900473ffffffffffffffffffffffffffffffffffffffff16905090565b606060018054610a11906126e1565b80601f0160208091040260200160405190810160405280929190818152602001828054610a3d906126e1565b8015610a8a5780601f10610a5f57610100808354040283529160200191610a8a565b820191906000526020600020905b815481529060010190602001808311610a6d57829003601f168201915b5050505050905090565b610aa6610a9f610f9c565b838361149d565b5050565b6000600d60009054906101000a900473ffffffffffffffffffffffffffffffffffffffff16905090565b610adc611359565b600c60009054906101000a900473ffffffffffffffffffffffffffffffffffffffff1673ffffffffffffffffffffffffffffffffffffffff1663948b56a3306040518263ffffffff1660e01b8152600401610b3791906121bb565b600060405180830381600087803b158015610b5157600080fd5b505af1158015610b65573d6000803e3d6000fd5b505050507fcaa0d503a8b72f80580e825ef1a8d902692817f3a7c41bd1d53df0682ff3a7d66007600101600760030154604051610ba39291906122ab565b60405180910390a1565b610bbe610bb8610f9c565b8361105d565b610bfd576040517f08c379a0000000000000000000000000000000000000000000000000000000008152600401610bf49061241b565b60405180910390fd5b610c098484848461160a565b50505050565b6060610c1a82610f51565b6000610c24611666565b90506000815111610c445760405180602001604052806000815250610c6f565b80610c4e8461167d565b604051602001610c5f929190612197565b6040516020818303038152906040525b915050919050565b610c7f611a5a565b60076040518060a001604052908160008201805480602002602001604051908101604052809291908181526020018280548015610d1157602002820191906000526020600020905b8160009054906101000a900473ffffffffffffffffffffffffffffffffffffffff1673ffffffffffffffffffffffffffffffffffffffff1681526020019060010190808311610cc7575b50505050508152602001600182018054610d2a906126e1565b80601f0160208091040260200160405190810160405280929190818152602001828054610d56906126e1565b8015610da35780601f10610d7857610100808354040283529160200191610da3565b820191906000526020600020905b815481529060010190602001808311610d8657829003601f168201915b505050505081526020016002820154815260200160038201548152602001600482015481525050905090565b6000600560008473ffffffffffffffffffffffffffffffffffffffff1673ffffffffffffffffffffffffffffffffffffffff16815260200190815260200160002060008373ffffffffffffffffffffffffffffffffffffffff1673ffffffffffffffffffffffffffffffffffffffff16815260200190815260200160002060009054906101000a900460ff16905092915050565b610e6b611359565b600073ffffffffffffffffffffffffffffffffffffffff168173ffffffffffffffffffffffffffffffffffffffff161415610edb576040517f08c379a0000000000000000000000000000000000000000000000000000000008152600401610ed2906122fb565b60405180910390fd5b610ee4816113d7565b50565b60007f01ffc9a7000000000000000000000000000000000000000000000000000000007bffffffffffffffffffffffffffffffffffffffffffffffffffffffff1916827bffffffffffffffffffffffffffffffffffffffffffffffffffffffff1916149050919050565b610f5a8161182a565b610f99576040517f08c379a0000000000000000000000000000000000000000000000000000000008152600401610f90906123db565b60405180910390fd5b50565b600033905090565b816004600083815260200190815260200160002060006101000a81548173ffffffffffffffffffffffffffffffffffffffff021916908373ffffffffffffffffffffffffffffffffffffffff160217905550808273ffffffffffffffffffffffffffffffffffffffff166110178361085a565b73ffffffffffffffffffffffffffffffffffffffff167f8c5be1e5ebec7d5bd14f71427d1e84f3dd0314c0f7b2291e5b200ac8c7c3b92560405160405180910390a45050565b6000806110698361085a565b90508073ffffffffffffffffffffffffffffffffffffffff168473ffffffffffffffffffffffffffffffffffffffff1614806110ab57506110aa8185610dcf565b5b806110e957508373ffffffffffffffffffffffffffffffffffffffff166110d184610630565b73ffffffffffffffffffffffffffffffffffffffff16145b91505092915050565b8273ffffffffffffffffffffffffffffffffffffffff166111128261085a565b73ffffffffffffffffffffffffffffffffffffffff1614611168576040517f08c379a000000000000000000000000000000000000000000000000000000000815260040161115f9061231b565b60405180910390fd5b600073ffffffffffffffffffffffffffffffffffffffff168273ffffffffffffffffffffffffffffffffffffffff1614156111d8576040517f08c379a00000000000000000000000000000000000000000000000000000000081526004016111cf9061233b565b60405180910390fd5b6111e3838383611896565b6111ee600082610fa4565b6001600360008573ffffffffffffffffffffffffffffffffffffffff1673ffffffffffffffffffffffffffffffffffffffff168152602001908152602001600020600082825461123e91906125f7565b925050819055506001600360008473ffffffffffffffffffffffffffffffffffffffff1673ffffffffffffffffffffffffffffffffffffffff16815260200190815260200160002060008282546112959190612570565b92505081905550816002600083815260200190815260200160002060006101000a81548173ffffffffffffffffffffffffffffffffffffffff021916908373ffffffffffffffffffffffffffffffffffffffff160217905550808273ffffffffffffffffffffffffffffffffffffffff168473ffffffffffffffffffffffffffffffffffffffff167fddf252ad1be2c89b69c2b068fc378daa952ba7f163c4a11628f55a4df523b3ef60405160405180910390a461135483838361189b565b505050565b611361610f9c565b73ffffffffffffffffffffffffffffffffffffffff1661137f6109d8565b73ffffffffffffffffffffffffffffffffffffffff16146113d5576040517f08c379a00000000000000000000000000000000000000000000000000000000081526004016113cc906123bb565b60405180910390fd5b565b6000600660009054906101000a900473ffffffffffffffffffffffffffffffffffffffff16905081600660006101000a81548173ffffffffffffffffffffffffffffffffffffffff021916908373ffffffffffffffffffffffffffffffffffffffff1602179055508173ffffffffffffffffffffffffffffffffffffffff168173ffffffffffffffffffffffffffffffffffffffff167f8be0079c531659141344cd1fd0a4f28419497f9722a3daafe3b4186f6b6457e060405160405180910390a35050565b8173ffffffffffffffffffffffffffffffffffffffff168373ffffffffffffffffffffffffffffffffffffffff16141561150c576040517f08c379a00000000000000000000000000000000000000000000000000000000081526004016115039061235b565b60405180910390fd5b80600560008573ffffffffffffffffffffffffffffffffffffffff1673ffffffffffffffffffffffffffffffffffffffff16815260200190815260200160002060008473ffffffffffffffffffffffffffffffffffffffff1673ffffffffffffffffffffffffffffffffffffffff16815260200190815260200160002060006101000a81548160ff0219169083151502179055508173ffffffffffffffffffffffffffffffffffffffff168373ffffffffffffffffffffffffffffffffffffffff167f17307eab39ab6107e8899845ad3d59bd9653f200f220920489ca2b5937696c31836040516115fd9190612222565b60405180910390a3505050565b6116158484846110f2565b611621848484846118a0565b611660576040517f08c379a0000000000000000000000000000000000000000000000000000000008152600401611657906122db565b60405180910390fd5b50505050565b606060405180602001604052806000815250905090565b606060008214156116c5576040518060400160405280600181526020017f30000000000000000000000000000000000000000000000000000000000000008152509050611825565b600082905060005b600082146116f75780806116e090612744565b915050600a826116f091906125c6565b91506116cd565b60008167ffffffffffffffff811115611739577f4e487b7100000000000000000000000000000000000000000000000000000000600052604160045260246000fd5b6040519080825280601f01601f19166020018201604052801561176b5781602001600182028036833780820191505090505b5090505b6000851461181e5760018261178491906125f7565b9150600a85611793919061278d565b603061179f9190612570565b60f81b8183815181106117db577f4e487b7100000000000000000000000000000000000000000000000000000000600052603260045260246000fd5b60200101907effffffffffffffffffffffffffffffffffffffffffffffffffffffffffffff1916908160001a905350600a8561181791906125c6565b945061176f565b8093505050505b919050565b60008073ffffffffffffffffffffffffffffffffffffffff166002600084815260200190815260200160002060009054906101000a900473ffffffffffffffffffffffffffffffffffffffff1673ffffffffffffffffffffffffffffffffffffffff1614159050919050565b505050565b505050565b60006118c18473ffffffffffffffffffffffffffffffffffffffff16611a37565b15611a2a578373ffffffffffffffffffffffffffffffffffffffff1663150b7a026118ea610f9c565b8786866040518563ffffffff1660e01b815260040161190c94939291906121d6565b602060405180830381600087803b15801561192657600080fd5b505af192505050801561195757506040513d601f19601f820116820180604052508101906119549190611d2a565b60015b6119da573d8060008114611987576040519150601f19603f3d011682016040523d82523d6000602084013e61198c565b606091505b506000815114156119d2576040517f08c379a00000000000000000000000000000000000000000000000000000000081526004016119c9906122db565b60405180910390fd5b805181602001fd5b63150b7a0260e01b7bffffffffffffffffffffffffffffffffffffffffffffffffffffffff1916817bffffffffffffffffffffffffffffffffffffffffffffffffffffffff191614915050611a2f565b600190505b949350505050565b6000808273ffffffffffffffffffffffffffffffffffffffff163b119050919050565b6040518060a0016040528060608152602001606081526020016000815260200160008152602001600081525090565b6000611a9c611a978461249d565b612478565b905082815260208101848484011115611ab457600080fd5b611abf84828561269f565b509392505050565b600081359050611ad681612b7e565b92915050565b600081359050611aeb81612b95565b92915050565b600081359050611b0081612bac565b92915050565b600081519050611b1581612bac565b92915050565b600082601f830112611b2c57600080fd5b8135611b3c848260208601611a89565b91505092915050565b600081359050611b5481612bc3565b92915050565b600060208284031215611b6c57600080fd5b6000611b7a84828501611ac7565b91505092915050565b60008060408385031215611b9657600080fd5b6000611ba485828601611ac7565b9250506020611bb585828601611ac7565b9150509250929050565b600080600060608486031215611bd457600080fd5b6000611be286828701611ac7565b9350506020611bf386828701611ac7565b9250506040611c0486828701611b45565b9150509250925092565b60008060008060808587031215611c2457600080fd5b6000611c3287828801611ac7565b9450506020611c4387828801611ac7565b9350506040611c5487828801611b45565b925050606085013567ffffffffffffffff811115611c7157600080fd5b611c7d87828801611b1b565b91505092959194509250565b60008060408385031215611c9c57600080fd5b6000611caa85828601611ac7565b9250506020611cbb85828601611adc565b9150509250929050565b60008060408385031215611cd857600080fd5b6000611ce685828601611ac7565b9250506020611cf785828601611b45565b9150509250929050565b600060208284031215611d1357600080fd5b6000611d2184828501611af1565b91505092915050565b600060208284031215611d3c57600080fd5b6000611d4a84828501611b06565b91505092915050565b600060208284031215611d6557600080fd5b6000611d7384828501611b45565b91505092915050565b6000611d888383611d94565b60208301905092915050565b611d9d8161262b565b82525050565b611dac8161262b565b82525050565b6000611dbd826124f3565b611dc78185612521565b9350611dd2836124ce565b8060005b83811015611e03578151611dea8882611d7c565b9750611df583612514565b925050600181019050611dd6565b5085935050505092915050565b611e198161263d565b82525050565b6000611e2a826124fe565b611e348185612532565b9350611e448185602086016126ae565b611e4d8161287a565b840191505092915050565b6000611e6382612509565b611e6d8185612543565b9350611e7d8185602086016126ae565b611e868161287a565b840191505092915050565b6000611e9c82612509565b611ea68185612554565b9350611eb68185602086016126ae565b611ebf8161287a565b840191505092915050565b6000611ed582612509565b611edf8185612565565b9350611eef8185602086016126ae565b80840191505092915050565b60008154611f08816126e1565b611f128186612554565b94506001821660008114611f2d5760018114611f3f57611f72565b60ff1983168652602086019350611f72565b611f48856124de565b60005b83811015611f6a57815481890152600182019150602081019050611f4b565b808801955050505b50505092915050565b6000611f88603283612554565b9150611f938261288b565b604082019050919050565b6000611fab602683612554565b9150611fb6826128da565b604082019050919050565b6000611fce602583612554565b9150611fd982612929565b604082019050919050565b6000611ff1602483612554565b9150611ffc82612978565b604082019050919050565b6000612014601983612554565b915061201f826129c7565b602082019050919050565b6000612037602983612554565b9150612042826129f0565b604082019050919050565b600061205a603e83612554565b915061206582612a3f565b604082019050919050565b600061207d602083612554565b915061208882612a8e565b602082019050919050565b60006120a0601883612554565b91506120ab82612ab7565b602082019050919050565b60006120c3602183612554565b91506120ce82612ae0565b604082019050919050565b60006120e6602e83612554565b91506120f182612b2f565b604082019050919050565b600060a08301600083015184820360008601526121198282611db2565b915050602083015184820360208601526121338282611e58565b91505060408301516121486040860182612179565b50606083015161215b6060860182612179565b50608083015161216e6080860182612179565b508091505092915050565b61218281612695565b82525050565b61219181612695565b82525050565b60006121a38285611eca565b91506121af8284611eca565b91508190509392505050565b60006020820190506121d06000830184611da3565b92915050565b60006080820190506121eb6000830187611da3565b6121f86020830186611da3565b6122056040830185612188565b81810360608301526122178184611e1f565b905095945050505050565b60006020820190506122376000830184611e10565b92915050565b600060208201905081810360008301526122578184611e91565b905092915050565b600060808201905081810360008301526122798187611e91565b90506122886020830186612188565b6122956040830185612188565b6122a26060830184612188565b95945050505050565b600060408201905081810360008301526122c58185611efb565b90506122d46020830184612188565b9392505050565b600060208201905081810360008301526122f481611f7b565b9050919050565b6000602082019050818103600083015261231481611f9e565b9050919050565b6000602082019050818103600083015261233481611fc1565b9050919050565b6000602082019050818103600083015261235481611fe4565b9050919050565b6000602082019050818103600083015261237481612007565b9050919050565b600060208201905081810360008301526123948161202a565b9050919050565b600060208201905081810360008301526123b48161204d565b9050919050565b600060208201905081810360008301526123d481612070565b9050919050565b600060208201905081810360008301526123f481612093565b9050919050565b60006020820190508181036000830152612414816120b6565b9050919050565b60006020820190508181036000830152612434816120d9565b9050919050565b6000602082019050818103600083015261245581846120fc565b905092915050565b60006020820190506124726000830184612188565b92915050565b6000612482612493565b905061248e8282612713565b919050565b6000604051905090565b600067ffffffffffffffff8211156124b8576124b761284b565b5b6124c18261287a565b9050602081019050919050565b6000819050602082019050919050565b60008190508160005260206000209050919050565b600081519050919050565b600081519050919050565b600081519050919050565b6000602082019050919050565b600082825260208201905092915050565b600082825260208201905092915050565b600082825260208201905092915050565b600082825260208201905092915050565b600081905092915050565b600061257b82612695565b915061258683612695565b9250827fffffffffffffffffffffffffffffffffffffffffffffffffffffffffffffffff038211156125bb576125ba6127be565b5b828201905092915050565b60006125d182612695565b91506125dc83612695565b9250826125ec576125eb6127ed565b5b828204905092915050565b600061260282612695565b915061260d83612695565b9250828210156126205761261f6127be565b5b828203905092915050565b600061263682612675565b9050919050565b60008115159050919050565b60007fffffffff0000000000000000000000000000000000000000000000000000000082169050919050565b600073ffffffffffffffffffffffffffffffffffffffff82169050919050565b6000819050919050565b82818337600083830152505050565b60005b838110156126cc5780820151818401526020810190506126b1565b838111156126db576000848401525b50505050565b600060028204905060018216806126f957607f821691505b6020821081141561270d5761270c61281c565b5b50919050565b61271c8261287a565b810181811067ffffffffffffffff8211171561273b5761273a61284b565b5b80604052505050565b600061274f82612695565b91507fffffffffffffffffffffffffffffffffffffffffffffffffffffffffffffffff821415612782576127816127be565b5b600182019050919050565b600061279882612695565b91506127a383612695565b9250826127b3576127b26127ed565b5b828206905092915050565b7f4e487b7100000000000000000000000000000000000000000000000000000000600052601160045260246000fd5b7f4e487b7100000000000000000000000000000000000000000000000000000000600052601260045260246000fd5b7f4e487b7100000000000000000000000000000000000000000000000000000000600052602260045260246000fd5b7f4e487b7100000000000000000000000000000000000000000000000000000000600052604160045260246000fd5b6000601f19601f8301169050919050565b7f4552433732313a207472616e7366657220746f206e6f6e20455243373231526560008201527f63656976657220696d706c656d656e7465720000000000000000000000000000602082015250565b7f4f776e61626c653a206e6577206f776e657220697320746865207a65726f206160008201527f6464726573730000000000000000000000000000000000000000000000000000602082015250565b7f4552433732313a207472616e736665722066726f6d20696e636f72726563742060008201527f6f776e6572000000000000000000000000000000000000000000000000000000602082015250565b7f4552433732313a207472616e7366657220746f20746865207a65726f2061646460008201527f7265737300000000000000000000000000000000000000000000000000000000602082015250565b7f4552433732313a20617070726f766520746f2063616c6c657200000000000000600082015250565b7f4552433732313a2061646472657373207a65726f206973206e6f74206120766160008201527f6c6964206f776e65720000000000000000000000000000000000000000000000602082015250565b7f4552433732313a20617070726f76652063616c6c6572206973206e6f7420746f60008201527f6b656e206f776e6572206e6f7220617070726f76656420666f7220616c6c0000602082015250565b7f4f776e61626c653a2063616c6c6572206973206e6f7420746865206f776e6572600082015250565b7f4552433732313a20696e76616c696420746f6b656e2049440000000000000000600082015250565b7f4552433732313a20617070726f76616c20746f2063757272656e74206f776e6560008201527f7200000000000000000000000000000000000000000000000000000000000000602082015250565b7f4552433732313a2063616c6c6572206973206e6f7420746f6b656e206f776e6560008201527f72206e6f7220617070726f766564000000000000000000000000000000000000602082015250565b612b878161262b565b8114612b9257600080fd5b50565b612b9e8161263d565b8114612ba957600080fd5b50565b612bb581612649565b8114612bc057600080fd5b50565b612bcc81612695565b8114612bd757600080fd5b5056fea26469706673582212206da00404e3c7102560a3b1150f9bd818415997220ac3381fcb6ddf63d838ed4d64736f6c63430008040033a2646970667358221220d6c2c6b420e179325c68c7c614efa8e417b660caaeadfc1b35e3ac64d08f1a5464736f6c63430008040033a26469706673582212206e71f22a5b12ccbb5de3ac8e477ecf556770faf2122487fd9455a77b3b32fd6264736f6c63430008040033",
  "linkReferences": {},
  "deployedLinkReferences": {}
}